{
  "contractName": "AccountingSystem",
  "abi": [
    {
      "inputs": [
        {
          "internalType": "contract AccountingToken",
          "name": "_token",
          "type": "address"
        }
      ],
      "stateMutability": "nonpayable",
      "type": "constructor"
    },
    {
      "inputs": [
        {
          "internalType": "uint256",
          "name": "",
          "type": "uint256"
        }
      ],
      "name": "accountAddresses",
      "outputs": [
        {
          "internalType": "address",
          "name": "",
          "type": "address"
        }
      ],
      "stateMutability": "view",
      "type": "function",
      "constant": true
    },
    {
      "inputs": [
        {
          "internalType": "address",
          "name": "",
          "type": "address"
        }
      ],
      "name": "accountTypes",
      "outputs": [
        {
          "internalType": "enum AccountingSystem.AccountType",
          "name": "",
          "type": "uint8"
        }
      ],
      "stateMutability": "view",
      "type": "function",
      "constant": true
    },
    {
      "inputs": [
        {
          "internalType": "address",
          "name": "",
          "type": "address"
        }
      ],
      "name": "accounts",
      "outputs": [
        {
          "internalType": "contract IAccount",
          "name": "",
          "type": "address"
        }
      ],
      "stateMutability": "view",
      "type": "function",
      "constant": true
    },
    {
      "inputs": [],
      "name": "owner",
      "outputs": [
        {
          "internalType": "address",
          "name": "",
          "type": "address"
        }
      ],
      "stateMutability": "view",
      "type": "function",
      "constant": true
    },
    {
      "inputs": [
        {
          "internalType": "address",
          "name": "_accountAddress",
          "type": "address"
        },
        {
          "internalType": "string",
          "name": "_accountName",
          "type": "string"
        }
      ],
      "name": "createAssetAccount",
      "outputs": [],
      "stateMutability": "nonpayable",
      "type": "function"
    },
    {
      "inputs": [
        {
          "internalType": "address",
          "name": "_accountAddress",
          "type": "address"
        },
        {
          "internalType": "string",
          "name": "_accountName",
          "type": "string"
        }
      ],
      "name": "createLiabilityAccount",
      "outputs": [],
      "stateMutability": "nonpayable",
      "type": "function"
    },
    {
      "inputs": [
        {
          "internalType": "address",
          "name": "_accountAddress",
          "type": "address"
        },
        {
          "internalType": "string",
          "name": "_accountName",
          "type": "string"
        },
        {
          "internalType": "bool",
          "name": "_isExpense",
          "type": "bool"
        }
      ],
      "name": "createResultAccount",
      "outputs": [],
      "stateMutability": "nonpayable",
      "type": "function"
    },
    {
      "inputs": [
        {
          "internalType": "address",
          "name": "_accountAddress",
          "type": "address"
        }
      ],
      "name": "getAccountDetails",
      "outputs": [
        {
          "internalType": "address",
          "name": "",
          "type": "address"
        },
        {
          "internalType": "enum AccountingSystem.AccountType",
          "name": "",
          "type": "uint8"
        }
      ],
      "stateMutability": "view",
      "type": "function",
      "constant": true
    },
    {
      "inputs": [
        {
          "internalType": "address",
          "name": "_accountAddress",
          "type": "address"
        },
        {
          "internalType": "string",
          "name": "_newAccountName",
          "type": "string"
        }
      ],
      "name": "updateAccountName",
      "outputs": [],
      "stateMutability": "nonpayable",
      "type": "function"
    },
    {
      "inputs": [],
      "name": "getAllAccountDetails",
      "outputs": [
        {
          "components": [
            {
              "internalType": "address",
              "name": "accountAddress",
              "type": "address"
            },
            {
              "internalType": "enum AccountingSystem.AccountType",
              "name": "accountType",
              "type": "uint8"
            }
          ],
          "internalType": "struct AccountingSystem.AccountDetails[]",
          "name": "",
          "type": "tuple[]"
        }
      ],
      "stateMutability": "view",
      "type": "function",
      "constant": true
    },
    {
      "inputs": [
        {
          "internalType": "address",
          "name": "_accountAddress",
          "type": "address"
        }
      ],
      "name": "getAccountInstance",
      "outputs": [
        {
          "internalType": "contract IAccount",
          "name": "",
          "type": "address"
        }
      ],
      "stateMutability": "view",
      "type": "function",
      "constant": true
    }
  ],
  "bytecode": "0x608060405234801561001057600080fd5b506040516133d03803806133d083398101604081905261002f91610062565b60008054336001600160a01b031991821617909155600380549091166001600160a01b0392909216919091179055610090565b600060208284031215610073578081fd5b81516001600160a01b0381168114610089578182fd5b9392505050565b6133318061009f6000396000f3fe60806040523480156200001157600080fd5b5060043610620000b85760003560e01c80638da5cb5b116200007b5780638da5cb5b146200015a578063d3bb42701462000164578063d6fe8581146200017d578063de32b6801462000194578063df1f085814620001ba578063eac542a814620001d157620000b8565b80631bff58d814620000bd5780632aceb53414620000ec5780635e5c06e214620001135780637ca10678146200012a578063879b26c01462000143575b600080fd5b620000d4620000ce36600462000b0a565b620001e8565b604051620000e3919062000b94565b60405180910390f35b62000103620000fd36600462000a29565b62000213565b604051620000e392919062000ba8565b620000d46200012436600462000a29565b6200028d565b620001416200013b36600462000a9f565b620002a8565b005b620001416200015436600462000a4d565b620003e9565b620000d462000540565b6200016e6200054f565b604051620000e3919062000bc7565b620001416200018e36600462000a4d565b62000705565b620001ab620001a536600462000a29565b620007e8565b604051620000e3919062000c2c565b62000141620001cb36600462000a4d565b620007fd565b620000d4620001e236600462000a29565b62000902565b60048181548110620001f957600080fd5b6000918252602090912001546001600160a01b0316905081565b6001600160a01b0381811660009081526001602052604081205490918291166200025a5760405162461bcd60e51b8152600401620002519062000df8565b60405180910390fd5b50506001600160a01b0380821660009081526001602090815260408083205460029092529091205491169060ff16915091565b6001602052600090815260409020546001600160a01b031681565b6000546001600160a01b03163314620002d55760405162461bcd60e51b8152600401620002519062000d5f565b6001600160a01b038381166000908152600160205260409020541615620003105760405162461bcd60e51b8152600401620002519062000d10565b6000828285600360009054906101000a90046001600160a01b0316604051620003399062000947565b62000348949392919062000c8c565b604051809103906000f08015801562000365573d6000803e3d6000fd5b506001600160a01b039485166000818152600160208181526040808420805496909a166001600160a01b03199687161790995560029052968120805460ff1916600317905560048054978801815590527f8a35acfbc15ff81a39ae7d344fd709f28e8600b4aa8c65c6b64bfe7fe36bd19b9095018054909116909417909355505050565b6000546001600160a01b03163314620004165760405162461bcd60e51b8152600401620002519062000d5f565b6001600160a01b038281166000908152600160205260409020541615620004515760405162461bcd60e51b8152600401620002519062000cc7565b600354604051600091839185916001600160a01b031690620004739062000955565b620004819392919062000c57565b604051809103906000f0801580156200049e573d6000803e3d6000fd5b506001600160a01b03848116600090815260016020818152604080842080546001600160a01b03191695871695909517909455600290529190208054929350909160ff191682805b021790555050600480546001810182556000919091527f8a35acfbc15ff81a39ae7d344fd709f28e8600b4aa8c65c6b64bfe7fe36bd19b0180546001600160a01b0319166001600160a01b03939093169290921790915550565b6000546001600160a01b031681565b60045460609060008167ffffffffffffffff8111156200057f57634e487b7160e01b600052604160045260246000fd5b604051908082528060200260200182016040528015620005bc57816020015b620005a862000963565b8152602001906001900390816200059e5790505b50905060005b82811015620006fe57600060048281548110620005ef57634e487b7160e01b600052603260045260246000fd5b60009182526020808320909101546001600160a01b0390811680845260019092526040909220549092501615620006e857808383815181106200064257634e487b7160e01b600052603260045260246000fd5b6020908102919091018101516001600160a01b039283169052908216600090815260029091526040902054835160ff909116908490849081106200069657634e487b7160e01b600052603260045260246000fd5b6020026020010151602001906003811115620006c257634e487b7160e01b600052602160045260246000fd5b90816003811115620006e457634e487b7160e01b600052602160045260246000fd5b9052505b5080620006f58162000e24565b915050620005c2565b5091505090565b6000546001600160a01b03163314620007325760405162461bcd60e51b8152600401620002519062000d5f565b6001600160a01b03828116600090815260016020526040902054166200076c5760405162461bcd60e51b8152600401620002519062000df8565b6001600160a01b0380831660009081526001602052604090819020549051632e95adad60e01b81529116908190632e95adad90620007af90859060040162000c42565b600060405180830381600087803b158015620007ca57600080fd5b505af1158015620007df573d6000803e3d6000fd5b50505050505050565b60026020526000908152604090205460ff1681565b6000546001600160a01b031633146200082a5760405162461bcd60e51b8152600401620002519062000d5f565b6001600160a01b038281166000908152600160205260409020541615620008655760405162461bcd60e51b8152600401620002519062000da6565b600354604051600091839185916001600160a01b03169062000887906200097a565b620008959392919062000c57565b604051809103906000f080158015620008b2573d6000803e3d6000fd5b506001600160a01b03848116600090815260016020818152604080842080546001600160a01b03191695871695909517909455600290819052929091208054939450919260ff19169083620004e6565b6001600160a01b03808216600090815260016020526040812054909116806200093f5760405162461bcd60e51b8152600401620002519062000df8565b90505b919050565b610d388062000e6383390190565b610be78062001b9b83390190565b604080518082019091526000808252602082015290565b610b7a806200278283390190565b80356001600160a01b03811681146200094257600080fd5b600082601f830112620009b1578081fd5b813567ffffffffffffffff80821115620009cf57620009cf62000e4c565b604051601f8301601f191681016020018281118282101715620009f657620009f662000e4c565b60405282815284830160200186101562000a0e578384fd5b82602086016020830137918201602001929092529392505050565b60006020828403121562000a3b578081fd5b62000a468262000988565b9392505050565b6000806040838503121562000a60578081fd5b62000a6b8362000988565b9150602083013567ffffffffffffffff81111562000a87578182fd5b62000a9585828601620009a0565b9150509250929050565b60008060006060848603121562000ab4578081fd5b62000abf8462000988565b9250602084013567ffffffffffffffff81111562000adb578182fd5b62000ae986828701620009a0565b9250506040840135801515811462000aff578182fd5b809150509250925092565b60006020828403121562000b1c578081fd5b5035919050565b6004811062000b4257634e487b7160e01b600052602160045260246000fd5b9052565b60008151808452815b8181101562000b6d5760208185018101518683018201520162000b4f565b8181111562000b7f5782602083870101525b50601f01601f19169290920160200192915050565b6001600160a01b0391909116815260200190565b6001600160a01b03831681526040810162000a46602083018462000b23565b602080825282518282018190526000919060409081850190868401855b8281101562000c1f57815180516001600160a01b0316855286015162000c0d8786018262000b23565b50928401929085019060010162000be4565b5091979650505050505050565b6020810162000c3c828462000b23565b92915050565b60006020825262000a46602083018462000b46565b60006060825262000c6c606083018662000b46565b6001600160a01b0394851660208401529290931660409091015292915050565b60006080825262000ca1608083018762000b46565b9415156020830152506001600160a01b0392831660408201529116606090910152919050565b60208082526029908201527f4163636f756e7420776974682074686973206164647265737320616c726561646040820152683c9032bc34b9ba399760b91b606082015260800190565b6020808252602f908201527f526573756c744163636f756e742077697468207468697320616464726573732060408201526e30b63932b0b23c9032bc34b9ba399760891b606082015260800190565b60208082526027908201527f4f6e6c7920746865206f776e65722063616e20706572666f726d20746869732060408201526630b1ba34b7b71760c91b606082015260800190565b60208082526032908201527f4c696162696c6974794163636f756e742077697468207468697320616464726560408201527139b99030b63932b0b23c9032bc34b9ba399760711b606082015260800190565b60208082526012908201527120b1b1b7bab73a103737ba103337bab7321760711b604082015260600190565b600060001982141562000e4557634e487b7160e01b81526011600452602481fd5b5060010190565b634e487b7160e01b600052604160045260246000fdfe60806040523480156200001157600080fd5b5060405162000d3838038062000d38833981016040819052620000349162000180565b600180546001600160a01b0319163317905583516200005b906000906020870190620000ac565b5060018054931515600160a01b0260ff60a01b1990941693909317909255600380546001600160a01b039283166001600160a01b0319918216179091556004805492909316911617905550620002dc565b828054620000ba9062000289565b90600052602060002090601f016020900481019282620000de576000855562000129565b82601f10620000f957805160ff191683800117855562000129565b8280016001018555821562000129579182015b82811115620001295782518255916020019190600101906200010c565b50620001379291506200013b565b5090565b5b808211156200013757600081556001016200013c565b80516001600160a01b03811681146200016a57600080fd5b919050565b805180151581146200016a57600080fd5b6000806000806080858703121562000196578384fd5b84516001600160401b0380821115620001ad578586fd5b818701915087601f830112620001c1578586fd5b815181811115620001d657620001d6620002c6565b6040516020601f8301601f1916820181018481118382101715620001fe57620001fe620002c6565b60405282825284830181018b101562000215578889fd5b8893505b8284101562000238578484018101518285018201529283019262000219565b828411156200024957888184840101525b81985062000259818b016200016f565b975050505050506200026e6040860162000152565b91506200027e6060860162000152565b905092959194509250565b6002810460018216806200029e57607f821691505b60208210811415620002c057634e487b7160e01b600052602260045260246000fd5b50919050565b634e487b7160e01b600052604160045260246000fd5b610a4c80620002ec6000396000f3fe608060405234801561001057600080fd5b50600436106100b45760003560e01c806378da744b1161007157806378da744b146101405780638da5cb5b146101535780639d76ea581461015b578063b69ef8a814610163578063c5e579851461016b578063e609d9fc14610173576100b4565b80630cd9d695146100b957806310fe9ae8146100d757806312065fe0146100ec5780632e95adad14610101578063313ce56714610116578063638dc2b51461012b575b600080fd5b6100c1610186565b6040516100ce9190610753565b60405180910390f35b6100df610196565b6040516100ce9190610726565b6100f46101a5565b6040516100ce9190610827565b61011461010f36600461066d565b6101ab565b005b61011e6101f5565b6040516100ce9190610830565b6101336101fa565b6040516100ce919061075e565b61011461014e36600461070e565b61028c565b6100df6103d2565b6100df6103e1565b6100f46103f0565b6101336103f6565b61011461018136600461070e565b610484565b600154600160a01b900460ff1681565b6003546001600160a01b031690565b60025490565b6001546001600160a01b031633146101de5760405162461bcd60e51b81526004016101d5906107e0565b60405180910390fd5b80516101f19060009060208401906105d4565b5050565b601281565b606060008054610209906109af565b80601f0160208091040260200160405190810160405280929190818152602001828054610235906109af565b80156102825780601f1061025757610100808354040283529160200191610282565b820191906000526020600020905b81548152906001019060200180831161026557829003601f168201915b5050505050905090565b6000610297826105b6565b600154909150600160a01b900460ff1615610351578160025410156102ce5760405162461bcd60e51b81526004016101d5906107b1565b60048054600354604051632770a7eb60e21b81526001600160a01b0392831693639dc29fac9361030293169186910161073a565b600060405180830381600087803b15801561031c57600080fd5b505af1158015610330573d6000803e3d6000fd5b5050505081600260008282546103469190610998565b909155506101f19050565b600480546003546040516340c10f1960e01b81526001600160a01b03928316936340c10f199361038593169186910161073a565b600060405180830381600087803b15801561039f57600080fd5b505af11580156103b3573d6000803e3d6000fd5b5050505081600260008282546103c9919061083e565b90915550505050565b6001546001600160a01b031681565b6003546001600160a01b031681565b60025481565b60008054610403906109af565b80601f016020809104026020016040519081016040528092919081815260200182805461042f906109af565b801561047c5780601f106104515761010080835404028352916020019161047c565b820191906000526020600020905b81548152906001019060200180831161045f57829003601f168201915b505050505081565b600061048f826105b6565b600154909150600160a01b900460ff161561051c57600480546003546040516340c10f1960e01b81526001600160a01b03928316936340c10f19936104d893169186910161073a565b600060405180830381600087803b1580156104f257600080fd5b505af1158015610506573d6000803e3d6000fd5b505050508160026000828254610346919061083e565b81600254101561053e5760405162461bcd60e51b81526004016101d5906107b1565b60048054600354604051632770a7eb60e21b81526001600160a01b0392831693639dc29fac9361057293169186910161073a565b600060405180830381600087803b15801561058c57600080fd5b505af11580156105a0573d6000803e3d6000fd5b5050505081600260008282546103c99190610998565b60006105c46012600a61089c565b6105ce9083610979565b92915050565b8280546105e0906109af565b90600052602060002090601f0160209004810192826106025760008555610648565b82601f1061061b57805160ff1916838001178555610648565b82800160010185558215610648579182015b8281111561064857825182559160200191906001019061062d565b50610654929150610658565b5090565b5b808211156106545760008155600101610659565b6000602080838503121561067f578182fd5b823567ffffffffffffffff80821115610696578384fd5b818501915085601f8301126106a9578384fd5b8135818111156106bb576106bb610a00565b604051601f8201601f19168101850183811182821017156106de576106de610a00565b60405281815283820185018810156106f4578586fd5b818585018683013790810190930193909352509392505050565b60006020828403121561071f578081fd5b5035919050565b6001600160a01b0391909116815260200190565b6001600160a01b03929092168252602082015260400190565b901515815260200190565b6000602080835283518082850152825b8181101561078a5785810183015185820160400152820161076e565b8181111561079b5783604083870101525b50601f01601f1916929092016040019392505050565b60208082526015908201527424b739bab33334b1b4b2b73a103130b630b731b29760591b604082015260600190565b60208082526027908201527f4f6e6c7920746865206f776e65722063616e20706572666f726d20746869732060408201526630b1ba34b7b71760c91b606082015260800190565b90815260200190565b60ff91909116815260200190565b60008219821115610851576108516109ea565b500190565b80825b60018086116108685750610893565b81870482111561087a5761087a6109ea565b8086161561088757918102915b9490941c938002610859565b94509492505050565b60006108ae60001960ff8516846108b5565b9392505050565b6000826108c4575060016108ae565b816108d1575060006108ae565b81600181146108e757600281146108f15761091e565b60019150506108ae565b60ff841115610902576109026109ea565b6001841b915084821115610918576109186109ea565b506108ae565b5060208310610133831016604e8410600b8410161715610951575081810a8381111561094c5761094c6109ea565b6108ae565b61095e8484846001610856565b808604821115610970576109706109ea565b02949350505050565b6000816000190483118215151615610993576109936109ea565b500290565b6000828210156109aa576109aa6109ea565b500390565b6002810460018216806109c357607f821691505b602082108114156109e457634e487b7160e01b600052602260045260246000fd5b50919050565b634e487b7160e01b600052601160045260246000fd5b634e487b7160e01b600052604160045260246000fdfea26469706673582212207ec5af99b3ccd099db3abbfa37e7dd62124a117b0f47600049018e9b01966ad564736f6c6343000800003360806040523480156200001157600080fd5b5060405162000be738038062000be7833981016040819052620000349162000152565b600180546001600160a01b0319163317905582516200005b9060009060208601906200008f565b50600380546001600160a01b039384166001600160a01b03199182161790915560048054929093169116179055506200029b565b8280546200009d9062000248565b90600052602060002090601f016020900481019282620000c157600085556200010c565b82601f10620000dc57805160ff19168380011785556200010c565b828001600101855582156200010c579182015b828111156200010c578251825591602001919060010190620000ef565b506200011a9291506200011e565b5090565b5b808211156200011a57600081556001016200011f565b80516001600160a01b03811681146200014d57600080fd5b919050565b60008060006060848603121562000167578283fd5b83516001600160401b03808211156200017e578485fd5b818601915086601f83011262000192578485fd5b815181811115620001a757620001a762000285565b6040516020601f8301601f1916820181018481118382101715620001cf57620001cf62000285565b60405282825284830181018a1015620001e6578788fd5b8793505b82841015620002095784840181015182850182015292830192620001ea565b828411156200021a57878184840101525b8197506200022a818a0162000135565b965050505050506200023f6040850162000135565b90509250925092565b6002810460018216806200025d57607f821691505b602082108114156200027f57634e487b7160e01b600052602260045260246000fd5b50919050565b634e487b7160e01b600052604160045260246000fd5b61093c80620002ab6000396000f3fe608060405234801561001057600080fd5b50600436106100a95760003560e01c806378da744b1161007157806378da744b146101205780638da5cb5b146101335780639d76ea581461013b578063b69ef8a814610143578063c5e579851461014b578063e609d9fc14610153576100a9565b806310fe9ae8146100ae57806312065fe0146100cc5780632e95adad146100e1578063313ce567146100f6578063638dc2b51461010b575b600080fd5b6100b6610166565b6040516100c39190610621565b60405180910390f35b6100d4610175565b6040516100c39190610717565b6100f46100ef366004610568565b61017b565b005b6100fe6101c5565b6040516100c39190610720565b6101136101ca565b6040516100c3919061064e565b6100f461012e366004610609565b61025c565b6100b661030c565b6100b661031b565b6100d461032a565b610113610330565b6100f4610161366004610609565b6103be565b6003546001600160a01b031690565b60025490565b6001546001600160a01b031633146101ae5760405162461bcd60e51b81526004016101a5906106d0565b60405180910390fd5b80516101c19060009060208401906104cf565b5050565b601281565b6060600080546101d99061089f565b80601f01602080910402602001604051908101604052809291908181526020018280546102059061089f565b80156102525780601f1061022757610100808354040283529160200191610252565b820191906000526020600020905b81548152906001019060200180831161023557829003601f168201915b5050505050905090565b6000610267826104b1565b905081600254101561028b5760405162461bcd60e51b81526004016101a5906106a1565b60048054600354604051632770a7eb60e21b81526001600160a01b0392831693639dc29fac936102bf931691869101610635565b600060405180830381600087803b1580156102d957600080fd5b505af11580156102ed573d6000803e3d6000fd5b5050505081600260008282546103039190610888565b90915550505050565b6001546001600160a01b031681565b6003546001600160a01b031681565b60025481565b6000805461033d9061089f565b80601f01602080910402602001604051908101604052809291908181526020018280546103699061089f565b80156103b65780601f1061038b576101008083540402835291602001916103b6565b820191906000526020600020905b81548152906001019060200180831161039957829003601f168201915b505050505081565b7f34a86b71c14b4ee66bd282352dcd8ec0401426a2d61d77d4c9a8014e73f79687816040516103ed9190610717565b60405180910390a16000610400826104b1565b90507f2d58b9b65dd698a59df7b8f936e587aebfbfd88f5cb1c22e91b6a596254221d0816040516104319190610717565b60405180910390a1600480546003546040516340c10f1960e01b81526001600160a01b03928316936340c10f199361046d931691869101610635565b600060405180830381600087803b15801561048757600080fd5b505af115801561049b573d6000803e3d6000fd5b505050508160026000828254610303919061072e565b60006104bf6012600a61078c565b6104c99083610869565b92915050565b8280546104db9061089f565b90600052602060002090601f0160209004810192826104fd5760008555610543565b82601f1061051657805160ff1916838001178555610543565b82800160010185558215610543579182015b82811115610543578251825591602001919060010190610528565b5061054f929150610553565b5090565b5b8082111561054f5760008155600101610554565b6000602080838503121561057a578182fd5b823567ffffffffffffffff80821115610591578384fd5b818501915085601f8301126105a4578384fd5b8135818111156105b6576105b66108f0565b604051601f8201601f19168101850183811182821017156105d9576105d96108f0565b60405281815283820185018810156105ef578586fd5b818585018683013790810190930193909352509392505050565b60006020828403121561061a578081fd5b5035919050565b6001600160a01b0391909116815260200190565b6001600160a01b03929092168252602082015260400190565b6000602080835283518082850152825b8181101561067a5785810183015185820160400152820161065e565b8181111561068b5783604083870101525b50601f01601f1916929092016040019392505050565b60208082526015908201527424b739bab33334b1b4b2b73a103130b630b731b29760591b604082015260600190565b60208082526027908201527f4f6e6c7920746865206f776e65722063616e20706572666f726d20746869732060408201526630b1ba34b7b71760c91b606082015260800190565b90815260200190565b60ff91909116815260200190565b60008219821115610741576107416108da565b500190565b80825b60018086116107585750610783565b81870482111561076a5761076a6108da565b8086161561077757918102915b9490941c938002610749565b94509492505050565b600061079e60001960ff8516846107a5565b9392505050565b6000826107b45750600161079e565b816107c15750600061079e565b81600181146107d757600281146107e15761080e565b600191505061079e565b60ff8411156107f2576107f26108da565b6001841b915084821115610808576108086108da565b5061079e565b5060208310610133831016604e8410600b8410161715610841575081810a8381111561083c5761083c6108da565b61079e565b61084e8484846001610746565b808604821115610860576108606108da565b02949350505050565b6000816000190483118215151615610883576108836108da565b500290565b60008282101561089a5761089a6108da565b500390565b6002810460018216806108b357607f821691505b602082108114156108d457634e487b7160e01b600052602260045260246000fd5b50919050565b634e487b7160e01b600052601160045260246000fd5b634e487b7160e01b600052604160045260246000fdfea2646970667358221220b6aad1cb9085192f82748fa4e66520e71569fec732088cc9044bf7b869ccb04a64736f6c6343000800003360806040523480156200001157600080fd5b5060405162000b7a38038062000b7a833981016040819052620000349162000152565b600280546001600160a01b0319163317905582516200005b9060019060208601906200008f565b50600380546001600160a01b039384166001600160a01b03199182161790915560048054929093169116179055506200029b565b8280546200009d9062000248565b90600052602060002090601f016020900481019282620000c157600085556200010c565b82601f10620000dc57805160ff19168380011785556200010c565b828001600101855582156200010c579182015b828111156200010c578251825591602001919060010190620000ef565b506200011a9291506200011e565b5090565b5b808211156200011a57600081556001016200011f565b80516001600160a01b03811681146200014d57600080fd5b919050565b60008060006060848603121562000167578283fd5b83516001600160401b03808211156200017e578485fd5b818601915086601f83011262000192578485fd5b815181811115620001a757620001a762000285565b6040516020601f8301601f1916820181018481118382101715620001cf57620001cf62000285565b60405282825284830181018a1015620001e6578788fd5b8793505b82841015620002095784840181015182850182015292830192620001ea565b828411156200021a57878184840101525b8197506200022a818a0162000135565b965050505050506200023f6040850162000135565b90509250925092565b6002810460018216806200025d57607f821691505b602082108114156200027f57634e487b7160e01b600052602260045260246000fd5b50919050565b634e487b7160e01b600052604160045260246000fd5b6108cf80620002ab6000396000f3fe608060405234801561001057600080fd5b50600436106100a95760003560e01c806378da744b1161007157806378da744b146101205780638da5cb5b146101335780639d76ea581461013b578063b69ef8a814610143578063c5e579851461014b578063e609d9fc14610153576100a9565b806310fe9ae8146100ae57806312065fe0146100cc5780632e95adad146100e1578063313ce567146100f6578063638dc2b51461010b575b600080fd5b6100b6610166565b6040516100c391906105b4565b60405180910390f35b6100d4610175565b6040516100c391906106aa565b6100f46100ef3660046104fb565b61017b565b005b6100fe6101c5565b6040516100c391906106b3565b6101136101ca565b6040516100c391906105e1565b6100f461012e36600461059c565b61025c565b6100b66102ec565b6100b66102fb565b6100d461030a565b610113610310565b6100f461016136600461059c565b61039e565b6003546001600160a01b031690565b60005490565b6002546001600160a01b031633146101ae5760405162461bcd60e51b81526004016101a590610663565b60405180910390fd5b80516101c1906001906020840190610462565b5050565b601281565b6060600180546101d990610832565b80601f016020809104026020016040519081016040528092919081815260200182805461020590610832565b80156102525780601f1061022757610100808354040283529160200191610252565b820191906000526020600020905b81548152906001019060200180831161023557829003601f168201915b5050505050905090565b600061026782610444565b600480546003546040516340c10f1960e01b81529394506001600160a01b03918216936340c10f19936102a093909216918691016105c8565b600060405180830381600087803b1580156102ba57600080fd5b505af11580156102ce573d6000803e3d6000fd5b50505050816000808282546102e391906106c1565b90915550505050565b6002546001600160a01b031681565b6003546001600160a01b031681565b60005481565b6001805461031d90610832565b80601f016020809104026020016040519081016040528092919081815260200182805461034990610832565b80156103965780601f1061036b57610100808354040283529160200191610396565b820191906000526020600020905b81548152906001019060200180831161037957829003601f168201915b505050505081565b60006103a982610444565b90508160005410156103cd5760405162461bcd60e51b81526004016101a590610634565b60048054600354604051632770a7eb60e21b81526001600160a01b0392831693639dc29fac936104019316918691016105c8565b600060405180830381600087803b15801561041b57600080fd5b505af115801561042f573d6000803e3d6000fd5b50505050816000808282546102e3919061081b565b60006104526012600a61071f565b61045c90836107fc565b92915050565b82805461046e90610832565b90600052602060002090601f01602090048101928261049057600085556104d6565b82601f106104a957805160ff19168380011785556104d6565b828001600101855582156104d6579182015b828111156104d65782518255916020019190600101906104bb565b506104e29291506104e6565b5090565b5b808211156104e257600081556001016104e7565b6000602080838503121561050d578182fd5b823567ffffffffffffffff80821115610524578384fd5b818501915085601f830112610537578384fd5b81358181111561054957610549610883565b604051601f8201601f191681018501838111828210171561056c5761056c610883565b6040528181528382018501881015610582578586fd5b818585018683013790810190930193909352509392505050565b6000602082840312156105ad578081fd5b5035919050565b6001600160a01b0391909116815260200190565b6001600160a01b03929092168252602082015260400190565b6000602080835283518082850152825b8181101561060d578581018301518582016040015282016105f1565b8181111561061e5783604083870101525b50601f01601f1916929092016040019392505050565b60208082526015908201527424b739bab33334b1b4b2b73a103130b630b731b29760591b604082015260600190565b60208082526027908201527f4f6e6c7920746865206f776e65722063616e20706572666f726d20746869732060408201526630b1ba34b7b71760c91b606082015260800190565b90815260200190565b60ff91909116815260200190565b600082198211156106d4576106d461086d565b500190565b80825b60018086116106eb5750610716565b8187048211156106fd576106fd61086d565b8086161561070a57918102915b9490941c9380026106dc565b94509492505050565b600061073160001960ff851684610738565b9392505050565b60008261074757506001610731565b8161075457506000610731565b816001811461076a5760028114610774576107a1565b6001915050610731565b60ff8411156107855761078561086d565b6001841b91508482111561079b5761079b61086d565b50610731565b5060208310610133831016604e8410600b84101617156107d4575081810a838111156107cf576107cf61086d565b610731565b6107e184848460016106d9565b8086048211156107f3576107f361086d565b02949350505050565b60008160001904831182151516156108165761081661086d565b500290565b60008282101561082d5761082d61086d565b500390565b60028104600182168061084657607f821691505b6020821081141561086757634e487b7160e01b600052602260045260246000fd5b50919050565b634e487b7160e01b600052601160045260246000fd5b634e487b7160e01b600052604160045260246000fdfea26469706673582212209be56cdc636bf1ec6569ad923f362ed1436a6480c591720af308b40157899ed564736f6c63430008000033a26469706673582212204918ca192c1bb7bede0630ce676968e3a1804f5c8643e069ef754bad863c931364736f6c63430008000033",
  "immutableReferences": {},
  "source": "// SPDX-License-Identifier: MIT\r\npragma solidity ^0.8.0;\r\n\r\nimport \"./IAccount.sol\";\r\nimport \"./AssetAccount.sol\";\r\nimport \"./LiabilityAccount.sol\";\r\nimport \"./ResultAccount.sol\";\r\nimport \"../tokens/AccountingToken.sol\";\r\n\r\n/**\r\n * @title AccountingSystem\r\n * @dev Este contrato permite la gestin de cuentas de activos y resultados.\r\n */\r\n\r\ncontract AccountingSystem {\r\n    address public owner;\r\n    mapping(address => IAccount) public accounts;\r\n    mapping(address => AccountType) public accountTypes;\r\n    AccountingToken private token;\r\n\r\n    enum AccountType {\r\n        NONE,\r\n        ASSET,\r\n        LIABILITY,\r\n        RESULT\r\n    }\r\n\r\n\r\n    //  un array de direcciones de cuentas.\r\n    address[] public accountAddresses;\r\n\r\n\r\n    /**\r\n     * @dev Constructor que establece el propietario del contrato.\r\n     */\r\n    constructor(AccountingToken _token) {\r\n        owner = msg.sender;\r\n        token = _token;\r\n    }\r\n\r\n    /**\r\n     * @notice Crea una nueva cuenta de activos.\r\n     * @dev Crea una nueva instancia de AssetAccount y la almacena en el mapping.\r\n     * @param _accountAddress La direccin que se utilizar como clave para la cuenta.\r\n     * @param _accountName El nombre de la cuenta.\r\n     */\r\n    function createAssetAccount(\r\n        address _accountAddress,\r\n        string memory _accountName\r\n    ) public {\r\n        require(msg.sender == owner, \"Only the owner can perform this action.\");\r\n        require(\r\n            address(accounts[_accountAddress]) == address(0),\r\n            \"Account with this address already exists.\"\r\n        );\r\n        AssetAccount newAccount = new AssetAccount(_accountName, _accountAddress, address(token));\r\n        accounts[_accountAddress] = IAccount(address(newAccount));\r\n        accountTypes[_accountAddress] = AccountType.ASSET;\r\n        accountAddresses.push(_accountAddress);\r\n    }\r\n\r\n    /**\r\n     * @notice Crea una nueva cuenta de Pasivo.\r\n     * @dev Crea una nueva instancia de LiabilityAccount y la almacena en el mapping.\r\n     * @param _accountAddress La direccin que se utilizar como clave para la cuenta.\r\n     * @param _accountName El nombre de la cuenta.\r\n     */\r\n    function createLiabilityAccount(\r\n        address _accountAddress,\r\n        string memory _accountName\r\n    ) public {\r\n        require(msg.sender == owner, \"Only the owner can perform this action.\");\r\n        require(\r\n            address(accounts[_accountAddress]) == address(0),\r\n            \"LiabilityAccount with this address already exists.\"\r\n        );\r\n        LiabilityAccount newLiabilitytAccount = new LiabilityAccount(\r\n            _accountName,  _accountAddress, address(token)\r\n        );\r\n        accounts[_accountAddress] = IAccount(address(newLiabilitytAccount));\r\n        accountTypes[_accountAddress] = AccountType.LIABILITY;\r\n        accountAddresses.push(_accountAddress); \r\n    }\r\n\r\n    /**\r\n     * @notice Crea una nueva cuenta de resultados.\r\n     * @dev Crea una nueva instancia de ResultAccount y la almacena en el mapping.\r\n     * @param _accountAddress La direccin que se utilizar como clave para la cuenta.\r\n     * @param _accountName El nombre de la cuenta.\r\n     * @param _isExpense Indica si la cuenta es de gastos o ingresos.\r\n     */\r\n    function createResultAccount(\r\n        address _accountAddress,\r\n        string memory _accountName,\r\n        bool _isExpense\r\n    ) public {\r\n        require(msg.sender == owner, \"Only the owner can perform this action.\");\r\n        require(\r\n            address(accounts[_accountAddress]) == address(0),\r\n            \"ResultAccount with this address already exists.\"\r\n        );\r\n        ResultAccount newResultAccount = new ResultAccount(\r\n            _accountName,\r\n            _isExpense,\r\n            _accountAddress,\r\n            address(token)\r\n        );\r\n        accounts[_accountAddress] = IAccount(address(newResultAccount));\r\n        accountTypes[_accountAddress] = AccountType.RESULT;\r\n        accountAddresses.push(_accountAddress);\r\n    }\r\n\r\n    // Agrega funciones para crear otros tipos de cuentas si es necesario.\r\n\r\n    /**\r\n     * @notice Obtiene los detalles de una cuenta especfica.\r\n     * @dev Retorna la direccin del contrato de la cuenta y el tipo de cuenta.\r\n     * @param _accountAddress La direccin de la cuenta a consultar.\r\n     * @return La direccin del contrato de la cuenta y el tipo de cuenta.\r\n     */\r\n    function getAccountDetails(address _accountAddress)\r\n        public\r\n        view\r\n        returns (address, AccountType)\r\n    {\r\n        require(\r\n            address(accounts[_accountAddress]) != address(0),\r\n            \"Account not found.\"\r\n        );\r\n        return (\r\n            address(accounts[_accountAddress]),\r\n            accountTypes[_accountAddress]\r\n        );\r\n    }\r\n\r\n    /**\r\n     * @notice Actualiza el nombre de una cuenta.\r\n     * @dev Actualiza el nombre de la cuenta en la instancia del contrato de la cuenta.\r\n     * @param _accountAddress La direccin de la cuenta a actualizar.\r\n     * @param _newAccountName El nuevo nombre para la cuenta.\r\n     */\r\n    function updateAccountName(\r\n        address _accountAddress,\r\n        string memory _newAccountName\r\n    ) public {\r\n        require(msg.sender == owner, \"Only the owner can perform this action.\");\r\n        require(\r\n            address(accounts[_accountAddress]) != address(0),\r\n            \"Account not found.\"\r\n        );\r\n        IAccount account = accounts[_accountAddress];\r\n        account.setAccountName(_newAccountName);\r\n    }\r\n\r\n    // Agrega funciones de actualizacin para otros atributos de la cuenta si es necesario.\r\n\r\n    /**\r\n     * @notice Obtiene todas las direcciones de cuentas de activos o pasivos o resultados.\r\n     * @dev Retorna un array de direcciones de cuentas de activos o pasivos o resultados segn el parmetro.\r\n     * @return Un array de direcciones de cuentas y un array de tipos de cuentas.\r\n     */\r\n    function getAllAccountDetails() public view returns (AccountDetails[] memory) {\r\n    uint256 accountCount = accountAddresses.length;\r\n    AccountDetails[] memory accountDetails = new AccountDetails[](accountCount);\r\n\r\n    for (uint256 i = 0; i < accountCount; i++) {\r\n        address accountAddress = accountAddresses[i];\r\n        if (address(accounts[accountAddress]) != address(0)) {\r\n            accountDetails[i].accountAddress = accountAddress;\r\n            accountDetails[i].accountType = accountTypes[accountAddress];\r\n        }\r\n    }\r\n    return accountDetails;\r\n    }\r\n\r\n\r\n    struct AccountDetails {\r\n    address accountAddress;\r\n    AccountType accountType;\r\n    }\r\n\r\n\r\n    /**\r\n     * @notice Obtiene la instancia del contrato de una cuenta.\r\n     * @dev Retorna la instancia del contrato de una cuenta especfica.\r\n     * @param _accountAddress Direccion asociada a la cuenta contable\r\n     * @return La direccin del contrato de la cuenta.\r\n     */\r\n\r\n    function getAccountInstance(address _accountAddress)\r\n        public\r\n        view\r\n        returns (IAccount)\r\n    {\r\n        IAccount accountInstance = accounts[_accountAddress];\r\n        require(address(accountInstance) != address(0), \"Account not found.\");\r\n        return accountInstance;\r\n    }\r\n}\r\n",
  "sourcePath": "D:\\Workspaces\\vdg-api-accounting\\contracts\\accountingSystem\\AccountingSystem.sol",
  "compiler": {
    "name": "solc",
    "version": "0.8.0+commit.c7dfd78e.Emscripten.clang"
  },
  "schemaVersion": "3.4.13",
  "updatedAt": "2023-05-22T22:13:50.919Z",
  "networkType": "ethereum",
  "devdoc": {
    "details": "Este contrato permite la gestin de cuentas de activos y resultados.",
    "kind": "dev",
    "methods": {
      "constructor": {
        "details": "Constructor que establece el propietario del contrato."
      },
      "createAssetAccount(address,string)": {
        "details": "Crea una nueva instancia de AssetAccount y la almacena en el mapping.",
        "params": {
          "_accountAddress": "La direccin que se utilizar como clave para la cuenta.",
          "_accountName": "El nombre de la cuenta."
        }
      },
      "createLiabilityAccount(address,string)": {
        "details": "Crea una nueva instancia de LiabilityAccount y la almacena en el mapping.",
        "params": {
          "_accountAddress": "La direccin que se utilizar como clave para la cuenta.",
          "_accountName": "El nombre de la cuenta."
        }
      },
      "createResultAccount(address,string,bool)": {
        "details": "Crea una nueva instancia de ResultAccount y la almacena en el mapping.",
        "params": {
          "_accountAddress": "La direccin que se utilizar como clave para la cuenta.",
          "_accountName": "El nombre de la cuenta.",
          "_isExpense": "Indica si la cuenta es de gastos o ingresos."
        }
      },
      "getAccountDetails(address)": {
        "details": "Retorna la direccin del contrato de la cuenta y el tipo de cuenta.",
        "params": {
          "_accountAddress": "La direccin de la cuenta a consultar."
        },
        "returns": {
          "_0": "La direccin del contrato de la cuenta y el tipo de cuenta."
        }
      },
      "getAccountInstance(address)": {
        "details": "Retorna la instancia del contrato de una cuenta especfica.",
        "params": {
          "_accountAddress": "Direccion asociada a la cuenta contable"
        },
        "returns": {
          "_0": "La direccin del contrato de la cuenta."
        }
      },
      "getAllAccountDetails()": {
        "details": "Retorna un array de direcciones de cuentas de activos o pasivos o resultados segn el parmetro.",
        "returns": {
          "_0": "Un array de direcciones de cuentas y un array de tipos de cuentas."
        }
      },
      "updateAccountName(address,string)": {
        "details": "Actualiza el nombre de la cuenta en la instancia del contrato de la cuenta.",
        "params": {
          "_accountAddress": "La direccin de la cuenta a actualizar.",
          "_newAccountName": "El nuevo nombre para la cuenta."
        }
      }
    },
    "title": "AccountingSystem",
    "version": 1
  },
  "userdoc": {
    "kind": "user",
    "methods": {
      "createAssetAccount(address,string)": {
        "notice": "Crea una nueva cuenta de activos."
      },
      "createLiabilityAccount(address,string)": {
        "notice": "Crea una nueva cuenta de Pasivo."
      },
      "createResultAccount(address,string,bool)": {
        "notice": "Crea una nueva cuenta de resultados."
      },
      "getAccountDetails(address)": {
        "notice": "Obtiene los detalles de una cuenta especfica."
      },
      "getAccountInstance(address)": {
        "notice": "Obtiene la instancia del contrato de una cuenta."
      },
      "getAllAccountDetails()": {
        "notice": "Obtiene todas las direcciones de cuentas de activos o pasivos o resultados."
      },
      "updateAccountName(address,string)": {
        "notice": "Actualiza el nombre de una cuenta."
      }
    },
    "version": 1
  }
}