{
  "contractName": "AssetAccount",
  "abi": [
    {
      "inputs": [
        {
          "internalType": "string",
          "name": "_accountName",
          "type": "string"
        },
        {
          "internalType": "address",
          "name": "_tokenAddress",
          "type": "address"
        },
        {
          "internalType": "address",
          "name": "instanceAccountingToken",
          "type": "address"
        }
      ],
      "stateMutability": "nonpayable",
      "type": "constructor"
    },
    {
      "anonymous": false,
      "inputs": [
        {
          "indexed": false,
          "internalType": "uint256",
          "name": "amount",
          "type": "uint256"
        }
      ],
      "name": "DebugAmount",
      "type": "event"
    },
    {
      "anonymous": false,
      "inputs": [
        {
          "indexed": false,
          "internalType": "uint256",
          "name": "tokenAmount",
          "type": "uint256"
        }
      ],
      "name": "DebugTokenAmount",
      "type": "event"
    },
    {
      "inputs": [],
      "name": "accountName",
      "outputs": [
        {
          "internalType": "string",
          "name": "",
          "type": "string"
        }
      ],
      "stateMutability": "view",
      "type": "function"
    },
    {
      "inputs": [],
      "name": "balance",
      "outputs": [
        {
          "internalType": "uint256",
          "name": "",
          "type": "uint256"
        }
      ],
      "stateMutability": "view",
      "type": "function"
    },
    {
      "inputs": [],
      "name": "decimals",
      "outputs": [
        {
          "internalType": "uint8",
          "name": "",
          "type": "uint8"
        }
      ],
      "stateMutability": "view",
      "type": "function"
    },
    {
      "inputs": [],
      "name": "owner",
      "outputs": [
        {
          "internalType": "address",
          "name": "",
          "type": "address"
        }
      ],
      "stateMutability": "view",
      "type": "function"
    },
    {
      "inputs": [],
      "name": "tokenAddress",
      "outputs": [
        {
          "internalType": "address",
          "name": "",
          "type": "address"
        }
      ],
      "stateMutability": "view",
      "type": "function"
    },
    {
      "inputs": [],
      "name": "getAccountName",
      "outputs": [
        {
          "internalType": "string",
          "name": "",
          "type": "string"
        }
      ],
      "stateMutability": "view",
      "type": "function"
    },
    {
      "inputs": [
        {
          "internalType": "string",
          "name": "_accountName",
          "type": "string"
        }
      ],
      "name": "setAccountName",
      "outputs": [],
      "stateMutability": "nonpayable",
      "type": "function"
    },
    {
      "inputs": [
        {
          "internalType": "uint256",
          "name": "_amount",
          "type": "uint256"
        }
      ],
      "name": "debit",
      "outputs": [],
      "stateMutability": "nonpayable",
      "type": "function"
    },
    {
      "inputs": [
        {
          "internalType": "uint256",
          "name": "_amount",
          "type": "uint256"
        }
      ],
      "name": "credit",
      "outputs": [],
      "stateMutability": "nonpayable",
      "type": "function"
    },
    {
      "inputs": [],
      "name": "getBalance",
      "outputs": [
        {
          "internalType": "uint256",
          "name": "",
          "type": "uint256"
        }
      ],
      "stateMutability": "view",
      "type": "function"
    },
    {
      "inputs": [],
      "name": "getTokenAddress",
      "outputs": [
        {
          "internalType": "address",
          "name": "",
          "type": "address"
        }
      ],
      "stateMutability": "view",
      "type": "function"
    }
  ],
  "bytecode": "0x60806040523480156200001157600080fd5b5060405162000be738038062000be7833981016040819052620000349162000152565b600180546001600160a01b0319163317905582516200005b9060009060208601906200008f565b50600380546001600160a01b039384166001600160a01b03199182161790915560048054929093169116179055506200029b565b8280546200009d9062000248565b90600052602060002090601f016020900481019282620000c157600085556200010c565b82601f10620000dc57805160ff19168380011785556200010c565b828001600101855582156200010c579182015b828111156200010c578251825591602001919060010190620000ef565b506200011a9291506200011e565b5090565b5b808211156200011a57600081556001016200011f565b80516001600160a01b03811681146200014d57600080fd5b919050565b60008060006060848603121562000167578283fd5b83516001600160401b03808211156200017e578485fd5b818601915086601f83011262000192578485fd5b815181811115620001a757620001a762000285565b6040516020601f8301601f1916820181018481118382101715620001cf57620001cf62000285565b60405282825284830181018a1015620001e6578788fd5b8793505b82841015620002095784840181015182850182015292830192620001ea565b828411156200021a57878184840101525b8197506200022a818a0162000135565b965050505050506200023f6040850162000135565b90509250925092565b6002810460018216806200025d57607f821691505b602082108114156200027f57634e487b7160e01b600052602260045260246000fd5b50919050565b634e487b7160e01b600052604160045260246000fd5b61093c80620002ab6000396000f3fe608060405234801561001057600080fd5b50600436106100a95760003560e01c806378da744b1161007157806378da744b146101205780638da5cb5b146101335780639d76ea581461013b578063b69ef8a814610143578063c5e579851461014b578063e609d9fc14610153576100a9565b806310fe9ae8146100ae57806312065fe0146100cc5780632e95adad146100e1578063313ce567146100f6578063638dc2b51461010b575b600080fd5b6100b6610166565b6040516100c39190610621565b60405180910390f35b6100d4610175565b6040516100c39190610717565b6100f46100ef366004610568565b61017b565b005b6100fe6101c5565b6040516100c39190610720565b6101136101ca565b6040516100c3919061064e565b6100f461012e366004610609565b61025c565b6100b661030c565b6100b661031b565b6100d461032a565b610113610330565b6100f4610161366004610609565b6103be565b6003546001600160a01b031690565b60025490565b6001546001600160a01b031633146101ae5760405162461bcd60e51b81526004016101a5906106d0565b60405180910390fd5b80516101c19060009060208401906104cf565b5050565b601281565b6060600080546101d99061089f565b80601f01602080910402602001604051908101604052809291908181526020018280546102059061089f565b80156102525780601f1061022757610100808354040283529160200191610252565b820191906000526020600020905b81548152906001019060200180831161023557829003601f168201915b5050505050905090565b6000610267826104b1565b905081600254101561028b5760405162461bcd60e51b81526004016101a5906106a1565b60048054600354604051632770a7eb60e21b81526001600160a01b0392831693639dc29fac936102bf931691869101610635565b600060405180830381600087803b1580156102d957600080fd5b505af11580156102ed573d6000803e3d6000fd5b5050505081600260008282546103039190610888565b90915550505050565b6001546001600160a01b031681565b6003546001600160a01b031681565b60025481565b6000805461033d9061089f565b80601f01602080910402602001604051908101604052809291908181526020018280546103699061089f565b80156103b65780601f1061038b576101008083540402835291602001916103b6565b820191906000526020600020905b81548152906001019060200180831161039957829003601f168201915b505050505081565b7f34a86b71c14b4ee66bd282352dcd8ec0401426a2d61d77d4c9a8014e73f79687816040516103ed9190610717565b60405180910390a16000610400826104b1565b90507f2d58b9b65dd698a59df7b8f936e587aebfbfd88f5cb1c22e91b6a596254221d0816040516104319190610717565b60405180910390a1600480546003546040516340c10f1960e01b81526001600160a01b03928316936340c10f199361046d931691869101610635565b600060405180830381600087803b15801561048757600080fd5b505af115801561049b573d6000803e3d6000fd5b505050508160026000828254610303919061072e565b60006104bf6012600a61078c565b6104c99083610869565b92915050565b8280546104db9061089f565b90600052602060002090601f0160209004810192826104fd5760008555610543565b82601f1061051657805160ff1916838001178555610543565b82800160010185558215610543579182015b82811115610543578251825591602001919060010190610528565b5061054f929150610553565b5090565b5b8082111561054f5760008155600101610554565b6000602080838503121561057a578182fd5b823567ffffffffffffffff80821115610591578384fd5b818501915085601f8301126105a4578384fd5b8135818111156105b6576105b66108f0565b604051601f8201601f19168101850183811182821017156105d9576105d96108f0565b60405281815283820185018810156105ef578586fd5b818585018683013790810190930193909352509392505050565b60006020828403121561061a578081fd5b5035919050565b6001600160a01b0391909116815260200190565b6001600160a01b03929092168252602082015260400190565b6000602080835283518082850152825b8181101561067a5785810183015185820160400152820161065e565b8181111561068b5783604083870101525b50601f01601f1916929092016040019392505050565b60208082526015908201527424b739bab33334b1b4b2b73a103130b630b731b29760591b604082015260600190565b60208082526027908201527f4f6e6c7920746865206f776e65722063616e20706572666f726d20746869732060408201526630b1ba34b7b71760c91b606082015260800190565b90815260200190565b60ff91909116815260200190565b60008219821115610741576107416108da565b500190565b80825b60018086116107585750610783565b81870482111561076a5761076a6108da565b8086161561077757918102915b9490941c938002610749565b94509492505050565b600061079e60001960ff8516846107a5565b9392505050565b6000826107b45750600161079e565b816107c15750600061079e565b81600181146107d757600281146107e15761080e565b600191505061079e565b60ff8411156107f2576107f26108da565b6001841b915084821115610808576108086108da565b5061079e565b5060208310610133831016604e8410600b8410161715610841575081810a8381111561083c5761083c6108da565b61079e565b61084e8484846001610746565b808604821115610860576108606108da565b02949350505050565b6000816000190483118215151615610883576108836108da565b500290565b60008282101561089a5761089a6108da565b500390565b6002810460018216806108b357607f821691505b602082108114156108d457634e487b7160e01b600052602260045260246000fd5b50919050565b634e487b7160e01b600052601160045260246000fd5b634e487b7160e01b600052604160045260246000fdfea2646970667358221220b6aad1cb9085192f82748fa4e66520e71569fec732088cc9044bf7b869ccb04a64736f6c63430008000033",
  "immutableReferences": {},
  "source": "// SPDX-License-Identifier: MIT\r\npragma solidity ^0.8.0;\r\n\r\nimport \"./IAccount.sol\";\r\nimport \"../tokens/AccountingToken.sol\"; \r\n/**\r\n * @title AssetAccount\r\n * @dev Este contrato implementa la interfaz IAccount y representa una cuenta de activos en un sistema de contabilidad.\r\n */\r\n\r\ncontract AssetAccount is IAccount {\r\n    string public accountName;\r\n    address public owner;\r\n    uint256 public balance;\r\n    address public tokenAddress;\r\n    AccountingToken private token;\r\n    uint8 public constant decimals = 18;\r\n\r\n    /**\r\n     * @dev Constructor de la cuenta de activos que establece el nombre de la cuenta y el propietario.\r\n     * @param _accountName El nombre de la cuenta.\r\n     * @param _tokenAddress addres de los tokens\r\n     */\r\n\r\n    constructor(string memory _accountName, address _tokenAddress, address instanceAccountingToken ) {\r\n        owner = msg.sender;\r\n        accountName = _accountName;\r\n        tokenAddress = _tokenAddress;\r\n        token = AccountingToken(instanceAccountingToken);\r\n    }\r\n\r\n\r\n    /**\r\n     * @dev Devuelve el nombre de la cuenta.\r\n     * @return El nombre de la cuenta.\r\n     */\r\n    function getAccountName() external view override returns (string memory) {\r\n        return accountName;\r\n    }\r\n\r\n    /**\r\n     * @dev Actualiza el nombre de la cuenta.\r\n     * @param _accountName El nuevo nombre de la cuenta.\r\n     */\r\n    function setAccountName(string memory _accountName) public override {\r\n        require(msg.sender == owner, \"Only the owner can perform this action.\");\r\n        accountName = _accountName;\r\n    }\r\n    event DebugAmount(uint256 amount);\r\n    event DebugTokenAmount(uint256 tokenAmount);\r\n\r\n    /**\r\n     * @dev Debita una cantidad de la cuenta.\r\n     * @param _amount La cantidad a debitar.\r\n     */\r\n    function debit(uint256 _amount) public override {\r\n        emit DebugAmount(_amount);\r\n        uint256 tokenAmount = toTokenUnits(_amount);\r\n        emit DebugTokenAmount(tokenAmount);\r\n        token.mint(tokenAddress, tokenAmount);\r\n        balance += _amount;\r\n    }\r\n\r\n    /**\r\n     * @dev Acredita una cantidad a la cuenta.\r\n     * @param _amount La cantidad a acreditar.\r\n     */\r\n    function credit(uint256 _amount) public override {\r\n        uint256 tokenAmount = toTokenUnits(_amount);\r\n        require(balance >= _amount, \"Insufficient balance.\");\r\n        token.burn(tokenAddress, tokenAmount);\r\n        balance -= _amount;\r\n    }\r\n    \r\n    /**\r\n     * @dev Devuelve el saldo actual de la cuenta.\r\n     * @return El saldo actual de la cuenta.\r\n     */\r\n    function getBalance() external view override returns (uint256) {\r\n        return balance;\r\n    }\r\n\r\n    /**\r\n     * @dev Devuelve el token address.\r\n     * @return addess Nombre de la cuenta.\r\n     */\r\n    function getTokenAddress() external view override returns (address) {\r\n        return tokenAddress;\r\n    }\r\n\r\n    function toTokenUnits(uint256 amount) internal pure returns (uint256) {\r\n    return amount * (10 ** decimals);\r\n    }\r\n\r\n}\r\n",
  "sourcePath": "D:\\Workspaces\\vdg-api-accounting\\contracts\\accountingSystem\\AssetAccount.sol",
  "compiler": {
    "name": "solc",
    "version": "0.8.0+commit.c7dfd78e.Emscripten.clang"
  },
  "schemaVersion": "3.4.13",
  "updatedAt": "2023-05-22T22:13:13.432Z",
  "devdoc": {
    "details": "Este contrato implementa la interfaz IAccount y representa una cuenta de activos en un sistema de contabilidad.",
    "kind": "dev",
    "methods": {
      "constructor": {
        "details": "Constructor de la cuenta de activos que establece el nombre de la cuenta y el propietario.",
        "params": {
          "_accountName": "El nombre de la cuenta.",
          "_tokenAddress": "addres de los tokens"
        }
      },
      "credit(uint256)": {
        "details": "Acredita una cantidad a la cuenta.",
        "params": {
          "_amount": "La cantidad a acreditar."
        }
      },
      "debit(uint256)": {
        "details": "Debita una cantidad de la cuenta.",
        "params": {
          "_amount": "La cantidad a debitar."
        }
      },
      "getAccountName()": {
        "details": "Devuelve el nombre de la cuenta.",
        "returns": {
          "_0": "El nombre de la cuenta."
        }
      },
      "getBalance()": {
        "details": "Devuelve el saldo actual de la cuenta.",
        "returns": {
          "_0": "El saldo actual de la cuenta."
        }
      },
      "getTokenAddress()": {
        "details": "Devuelve el token address.",
        "returns": {
          "_0": "addess Nombre de la cuenta."
        }
      },
      "setAccountName(string)": {
        "details": "Actualiza el nombre de la cuenta.",
        "params": {
          "_accountName": "El nuevo nombre de la cuenta."
        }
      }
    },
    "title": "AssetAccount",
    "version": 1
  },
  "userdoc": {
    "kind": "user",
    "methods": {},
    "version": 1
  }
}