{
  "contractName": "AssetAccount",
  "abi": [
    {
      "inputs": [
        {
          "internalType": "string",
          "name": "_accountName",
          "type": "string"
        },
        {
          "internalType": "address",
          "name": "_tokenAddress",
          "type": "address"
        },
        {
          "internalType": "address",
          "name": "instanceAccountingToken",
          "type": "address"
        }
      ],
      "stateMutability": "nonpayable",
      "type": "constructor"
    },
    {
      "inputs": [],
      "name": "accountName",
      "outputs": [
        {
          "internalType": "string",
          "name": "",
          "type": "string"
        }
      ],
      "stateMutability": "view",
      "type": "function"
    },
    {
      "inputs": [],
      "name": "owner",
      "outputs": [
        {
          "internalType": "address",
          "name": "",
          "type": "address"
        }
      ],
      "stateMutability": "view",
      "type": "function"
    },
    {
      "inputs": [],
      "name": "tokenAddress",
      "outputs": [
        {
          "internalType": "address",
          "name": "",
          "type": "address"
        }
      ],
      "stateMutability": "view",
      "type": "function"
    },
    {
      "inputs": [],
      "name": "getAccountName",
      "outputs": [
        {
          "internalType": "string",
          "name": "",
          "type": "string"
        }
      ],
      "stateMutability": "view",
      "type": "function"
    },
    {
      "inputs": [
        {
          "internalType": "string",
          "name": "_accountName",
          "type": "string"
        }
      ],
      "name": "setAccountName",
      "outputs": [],
      "stateMutability": "nonpayable",
      "type": "function"
    },
    {
      "inputs": [
        {
          "internalType": "uint256",
          "name": "_amount",
          "type": "uint256"
        }
      ],
      "name": "debit",
      "outputs": [],
      "stateMutability": "nonpayable",
      "type": "function"
    },
    {
      "inputs": [
        {
          "internalType": "uint256",
          "name": "_amount",
          "type": "uint256"
        }
      ],
      "name": "credit",
      "outputs": [],
      "stateMutability": "nonpayable",
      "type": "function"
    },
    {
      "inputs": [],
      "name": "getBalance",
      "outputs": [
        {
          "internalType": "uint256",
          "name": "",
          "type": "uint256"
        }
      ],
      "stateMutability": "view",
      "type": "function"
    },
    {
      "inputs": [],
      "name": "getTokenAddress",
      "outputs": [
        {
          "internalType": "address",
          "name": "",
          "type": "address"
        }
      ],
      "stateMutability": "view",
      "type": "function"
    }
  ],
  "bytecode": "0x60806040523480156200001157600080fd5b5060405162000a3838038062000a38833981016040819052620000349162000152565b600180546001600160a01b0319163317905582516200005b9060009060208601906200008f565b50600280546001600160a01b039384166001600160a01b03199182161790915560038054929093169116179055506200029b565b8280546200009d9062000248565b90600052602060002090601f016020900481019282620000c157600085556200010c565b82601f10620000dc57805160ff19168380011785556200010c565b828001600101855582156200010c579182015b828111156200010c578251825591602001919060010190620000ef565b506200011a9291506200011e565b5090565b5b808211156200011a57600081556001016200011f565b80516001600160a01b03811681146200014d57600080fd5b919050565b60008060006060848603121562000167578283fd5b83516001600160401b03808211156200017e578485fd5b818601915086601f83011262000192578485fd5b815181811115620001a757620001a762000285565b6040516020601f8301601f1916820181018481118382101715620001cf57620001cf62000285565b60405282825284830181018a1015620001e6578788fd5b8793505b82841015620002095784840181015182850182015292830192620001ea565b828411156200021a57878184840101525b8197506200022a818a0162000135565b965050505050506200023f6040850162000135565b90509250925092565b6002810460018216806200025d57607f821691505b602082108114156200027f57634e487b7160e01b600052602260045260246000fd5b50919050565b634e487b7160e01b600052604160045260246000fd5b61078d80620002ab6000396000f3fe608060405234801561001057600080fd5b50600436106100935760003560e01c806378da744b1161006657806378da744b146100f55780638da5cb5b146101085780639d76ea5814610110578063c5e5798514610118578063e609d9fc1461012057610093565b806310fe9ae81461009857806312065fe0146100b65780632e95adad146100cb578063638dc2b5146100e0575b600080fd5b6100a0610133565b6040516100ad9190610607565b60405180910390f35b6100be610142565b6040516100ad91906106fd565b6100de6100d9366004610536565b6101cf565b005b6100e8610219565b6040516100ad9190610634565b6100de6101033660046105d7565b6102ab565b6100a06103bb565b6100a06103ca565b6100e86103d9565b6100de61012e3660046105d7565b610467565b6002546001600160a01b031690565b6003546002546040516370a0823160e01b81526000926001600160a01b03908116926370a082319261017a9290911690600401610607565b60206040518083038186803b15801561019257600080fd5b505afa1580156101a6573d6000803e3d6000fd5b505050506040513d601f19601f820116820180604052508101906101ca91906105ef565b905090565b6001546001600160a01b031633146102025760405162461bcd60e51b81526004016101f9906106b6565b60405180910390fd5b805161021590600090602084019061049d565b5050565b60606000805461022890610706565b80601f016020809104026020016040519081016040528092919081815260200182805461025490610706565b80156102a15780601f10610276576101008083540402835291602001916102a1565b820191906000526020600020905b81548152906001019060200180831161028457829003601f168201915b5050505050905090565b6003546002546040516370a0823160e01b815283926001600160a01b03908116926370a08231926102e29290911690600401610607565b60206040518083038186803b1580156102fa57600080fd5b505afa15801561030e573d6000803e3d6000fd5b505050506040513d601f19601f8201168201806040525081019061033291906105ef565b10156103505760405162461bcd60e51b81526004016101f990610687565b600354600254604051632770a7eb60e21b81526001600160a01b0392831692639dc29fac9261038692911690859060040161061b565b600060405180830381600087803b1580156103a057600080fd5b505af11580156103b4573d6000803e3d6000fd5b5050505050565b6001546001600160a01b031681565b6002546001600160a01b031681565b600080546103e690610706565b80601f016020809104026020016040519081016040528092919081815260200182805461041290610706565b801561045f5780601f106104345761010080835404028352916020019161045f565b820191906000526020600020905b81548152906001019060200180831161044257829003601f168201915b505050505081565b6003546002546040516340c10f1960e01b81526001600160a01b03928316926340c10f199261038692911690859060040161061b565b8280546104a990610706565b90600052602060002090601f0160209004810192826104cb5760008555610511565b82601f106104e457805160ff1916838001178555610511565b82800160010185558215610511579182015b828111156105115782518255916020019190600101906104f6565b5061051d929150610521565b5090565b5b8082111561051d5760008155600101610522565b60006020808385031215610548578182fd5b823567ffffffffffffffff8082111561055f578384fd5b818501915085601f830112610572578384fd5b81358181111561058457610584610741565b604051601f8201601f19168101850183811182821017156105a7576105a7610741565b60405281815283820185018810156105bd578586fd5b818585018683013790810190930193909352509392505050565b6000602082840312156105e8578081fd5b5035919050565b600060208284031215610600578081fd5b5051919050565b6001600160a01b0391909116815260200190565b6001600160a01b03929092168252602082015260400190565b6000602080835283518082850152825b8181101561066057858101830151858201604001528201610644565b818111156106715783604083870101525b50601f01601f1916929092016040019392505050565b60208082526015908201527424b739bab33334b1b4b2b73a103130b630b731b29760591b604082015260600190565b60208082526027908201527f4f6e6c7920746865206f776e65722063616e20706572666f726d20746869732060408201526630b1ba34b7b71760c91b606082015260800190565b90815260200190565b60028104600182168061071a57607f821691505b6020821081141561073b57634e487b7160e01b600052602260045260246000fd5b50919050565b634e487b7160e01b600052604160045260246000fdfea2646970667358221220918b880de953432687a836489a82d5912aaec40eb96037c00b47e495e6cddf2f64736f6c63430008000033",
  "immutableReferences": {},
  "source": "// SPDX-License-Identifier: MIT\r\npragma solidity ^0.8.0;\r\n\r\nimport \"./IAccount.sol\";\r\nimport \"../tokens/AccountingToken.sol\"; \r\n/**\r\n * @title AssetAccount\r\n * @dev Este contrato implementa la interfaz IAccount y representa una cuenta de activos en un sistema de contabilidad.\r\n */\r\n\r\ncontract AssetAccount is IAccount {\r\n    string public accountName;\r\n    address public owner;\r\n    address public tokenAddress;\r\n    AccountingToken private token;\r\n\r\n    /**\r\n     * @dev Constructor de la cuenta de activos que establece el nombre de la cuenta y el propietario.\r\n     * @param _accountName El nombre de la cuenta.\r\n     * @param _tokenAddress addres de los tokens\r\n     */\r\n\r\n    constructor(string memory _accountName, address _tokenAddress, address instanceAccountingToken ) {\r\n        owner = msg.sender;\r\n        accountName = _accountName;\r\n        tokenAddress = _tokenAddress;\r\n        token = AccountingToken(instanceAccountingToken);\r\n    }\r\n\r\n\r\n    /**\r\n     * @dev Devuelve el nombre de la cuenta.\r\n     * @return El nombre de la cuenta.\r\n     */\r\n    function getAccountName() external view override returns (string memory) {\r\n        return accountName;\r\n    }\r\n\r\n    /**\r\n     * @dev Actualiza el nombre de la cuenta.\r\n     * @param _accountName El nuevo nombre de la cuenta.\r\n     */\r\n    function setAccountName(string memory _accountName) public override {\r\n        require(msg.sender == owner, \"Only the owner can perform this action.\");\r\n        accountName = _accountName;\r\n    }\r\n\r\n    /**\r\n     * @dev Debita una cantidad de la cuenta.\r\n     * @param _amount La cantidad a debitar.\r\n     */\r\n    function debit(uint256 _amount) public override {\r\n        token.mint(tokenAddress, _amount);\r\n    }\r\n\r\n    /**\r\n     * @dev Acredita una cantidad a la cuenta.\r\n     * @param _amount La cantidad a acreditar.\r\n     */\r\n    function credit(uint256 _amount) public override {\r\n        require(token.balanceOf(tokenAddress) >= _amount, \"Insufficient balance.\");\r\n        token.burn(tokenAddress, _amount);\r\n    }\r\n    \r\n    /**\r\n     * @dev Devuelve el saldo actual de la cuenta.\r\n     * @return El saldo actual de la cuenta.\r\n     */\r\n    function getBalance() external view override returns (uint256) {\r\n        return token.balanceOf(tokenAddress);\r\n    }\r\n\r\n    /**\r\n     * @dev Devuelve el token address.\r\n     * @return addess Nombre de la cuenta.\r\n     */\r\n    function getTokenAddress() external view override returns (address) {\r\n        return tokenAddress;\r\n    }\r\n\r\n}\r\n",
  "sourcePath": "D:\\Workspaces\\vdg-api-accounting\\contracts\\accountingSystem\\AssetAccount.sol",
  "compiler": {
    "name": "solc",
    "version": "0.8.0+commit.c7dfd78e.Emscripten.clang"
  },
  "schemaVersion": "3.4.13",
  "updatedAt": "2023-05-31T18:47:41.655Z",
  "devdoc": {
    "details": "Este contrato implementa la interfaz IAccount y representa una cuenta de activos en un sistema de contabilidad.",
    "kind": "dev",
    "methods": {
      "constructor": {
        "details": "Constructor de la cuenta de activos que establece el nombre de la cuenta y el propietario.",
        "params": {
          "_accountName": "El nombre de la cuenta.",
          "_tokenAddress": "addres de los tokens"
        }
      },
      "credit(uint256)": {
        "details": "Acredita una cantidad a la cuenta.",
        "params": {
          "_amount": "La cantidad a acreditar."
        }
      },
      "debit(uint256)": {
        "details": "Debita una cantidad de la cuenta.",
        "params": {
          "_amount": "La cantidad a debitar."
        }
      },
      "getAccountName()": {
        "details": "Devuelve el nombre de la cuenta.",
        "returns": {
          "_0": "El nombre de la cuenta."
        }
      },
      "getBalance()": {
        "details": "Devuelve el saldo actual de la cuenta.",
        "returns": {
          "_0": "El saldo actual de la cuenta."
        }
      },
      "getTokenAddress()": {
        "details": "Devuelve el token address.",
        "returns": {
          "_0": "addess Nombre de la cuenta."
        }
      },
      "setAccountName(string)": {
        "details": "Actualiza el nombre de la cuenta.",
        "params": {
          "_accountName": "El nuevo nombre de la cuenta."
        }
      }
    },
    "title": "AssetAccount",
    "version": 1
  },
  "userdoc": {
    "kind": "user",
    "methods": {},
    "version": 1
  }
}