{
  "contractName": "ConfigurationSystem",
  "abi": [
    {
      "anonymous": false,
      "inputs": [
        {
          "indexed": true,
          "internalType": "address",
          "name": "configurationAddress",
          "type": "address"
        }
      ],
      "name": "ConfigurationCreated",
      "type": "event"
    },
    {
      "inputs": [
        {
          "internalType": "string",
          "name": "description",
          "type": "string"
        }
      ],
      "name": "createConfiguration",
      "outputs": [],
      "stateMutability": "nonpayable",
      "type": "function"
    },
    {
      "inputs": [
        {
          "internalType": "contract IConfiguration",
          "name": "configuration",
          "type": "address"
        },
        {
          "internalType": "contract IAccount",
          "name": "account",
          "type": "address"
        },
        {
          "internalType": "bool",
          "name": "isCredit",
          "type": "bool"
        }
      ],
      "name": "setAccount",
      "outputs": [],
      "stateMutability": "nonpayable",
      "type": "function"
    },
    {
      "inputs": [],
      "name": "getAllConfigurations",
      "outputs": [
        {
          "internalType": "contract IConfiguration[]",
          "name": "",
          "type": "address[]"
        }
      ],
      "stateMutability": "view",
      "type": "function",
      "constant": true
    }
  ],
  "bytecode": "0x608060405234801561001057600080fd5b50610ac1806100206000396000f3fe608060405234801561001057600080fd5b50600436106100415760003560e01c8063214cda8014610046578063bb0823411461005b578063d5be021314610079575b600080fd5b610059610054366004610278565b61008c565b005b610063610159565b6040516100709190610367565b60405180910390f35b6100596100873660046102c6565b6101bb565b80156100f5576040516383b5974760e01b81526001600160a01b038416906383b59747906100be9085906004016103b4565b600060405180830381600087803b1580156100d857600080fd5b505af11580156100ec573d6000803e3d6000fd5b50505050610154565b604051631b7e4e7760e11b81526001600160a01b038416906336fc9cee906101219085906004016103b4565b600060405180830381600087803b15801561013b57600080fd5b505af115801561014f573d6000803e3d6000fd5b505050505b505050565b606060008054806020026020016040519081016040528092919081815260200182805480156101b157602002820191906000526020600020905b81546001600160a01b03168152600190910190602001808311610193575b5050505050905090565b6000816040516101ca9061026b565b6101d491906103c8565b604051809103906000f0801580156101f0573d6000803e3d6000fd5b50600080546001810182558180527f290decd9548b62a8d60345a988386fc84ba6bc95484008f6362f93160ef3e5630180546001600160a01b0319166001600160a01b038416908117909155604051929350917f9e5b31097ac75fff09f02db6cd8e78cfa9bbb20d98ad29c1c6cd455c616f8a069190a25050565b6106428061044a83390190565b60008060006060848603121561028c578283fd5b833561029781610431565b925060208401356102a781610431565b9150604084013580151581146102bb578182fd5b809150509250925092565b600060208083850312156102d8578182fd5b823567ffffffffffffffff808211156102ef578384fd5b818501915085601f830112610302578384fd5b8135818111156103145761031461041b565b604051601f8201601f19168101850183811182821017156103375761033761041b565b604052818152838201850188101561034d578586fd5b818585018683013790810190930193909352509392505050565b6020808252825182820181905260009190848201906040850190845b818110156103a85783516001600160a01b031683529284019291840191600101610383565b50909695505050505050565b6001600160a01b0391909116815260200190565b6000602080835283518082850152825b818110156103f4578581018301518582016040015282016103d8565b818111156104055783604083870101525b50601f01601f1916929092016040019392505050565b634e487b7160e01b600052604160045260246000fd5b6001600160a01b038116811461044657600080fd5b5056fe608060405234801561001057600080fd5b5060405161064238038061064283398101604081905261002f916100e2565b8051610042906003906020840190610049565b50506101f5565b828054610055906101a4565b90600052602060002090601f01602090048101928261007757600085556100bd565b82601f1061009057805160ff19168380011785556100bd565b828001600101855582156100bd579182015b828111156100bd5782518255916020019190600101906100a2565b506100c99291506100cd565b5090565b5b808211156100c957600081556001016100ce565b600060208083850312156100f4578182fd5b82516001600160401b038082111561010a578384fd5b818501915085601f83011261011d578384fd5b81518181111561012f5761012f6101df565b604051601f8201601f1916810185018381118282101715610152576101526101df565b6040528181528382018501881015610168578586fd5b8592505b81831015610189578383018501518184018601529184019161016c565b8183111561019957858583830101525b979650505050505050565b6002810460018216806101b857607f821691505b602082108114156101d957634e487b7160e01b600052602260045260246000fd5b50919050565b634e487b7160e01b600052604160045260246000fd5b61043e806102046000396000f3fe608060405234801561001057600080fd5b50600436106100625760003560e01c80631a0925411461006757806336fc9cee1461008557806343b8865d1461009a57806383b59747146100af57806390c3f38f146100c2578063ac21cb8e146100d5575b600080fd5b61006f6100dd565b60405161007c9190610364565b60405180910390f35b610098610093366004610281565b61016f565b005b6100a2610191565b60405161007c9190610350565b6100986100bd366004610281565b6101a0565b6100986100d03660046102af565b6101c2565b6100a26101d9565b6060600380546100ec906103b7565b80601f0160208091040260200160405190810160405280929190818152602001828054610118906103b7565b80156101655780601f1061013a57610100808354040283529160200191610165565b820191906000526020600020905b81548152906001019060200180831161014857829003601f168201915b5050505050905090565b600080546001600160a01b0319166001600160a01b0392909216919091179055565b6001546001600160a01b031690565b600180546001600160a01b0319166001600160a01b0392909216919091179055565b80516101d59060039060208401906101e8565b5050565b6000546001600160a01b031690565b8280546101f4906103b7565b90600052602060002090601f016020900481019282610216576000855561025c565b82601f1061022f57805160ff191683800117855561025c565b8280016001018555821561025c579182015b8281111561025c578251825591602001919060010190610241565b5061026892915061026c565b5090565b5b80821115610268576000815560010161026d565b600060208284031215610292578081fd5b81356001600160a01b03811681146102a8578182fd5b9392505050565b600060208083850312156102c1578182fd5b823567ffffffffffffffff808211156102d8578384fd5b818501915085601f8301126102eb578384fd5b8135818111156102fd576102fd6103f2565b604051601f8201601f1916810185018381118282101715610320576103206103f2565b6040528181528382018501881015610336578586fd5b818585018683013790810190930193909352509392505050565b6001600160a01b0391909116815260200190565b6000602080835283518082850152825b8181101561039057858101830151858201604001528201610374565b818111156103a15783604083870101525b50601f01601f1916929092016040019392505050565b6002810460018216806103cb57607f821691505b602082108114156103ec57634e487b7160e01b600052602260045260246000fd5b50919050565b634e487b7160e01b600052604160045260246000fdfea26469706673582212208a9af220402b0fe289f72783dee7d000b014b3a13dc8d81ddc2fb81dba03b5fc64736f6c63430008000033a26469706673582212208a5e6a64489042722114bf6ea920fcaea180e14daf6e5b0bc4d53f20966b257564736f6c63430008000033",
  "immutableReferences": {},
  "source": "// SPDX-License-Identifier: MIT\r\npragma solidity ^0.8.0;\r\n\r\nimport \"./IConfiguration.sol\";\r\nimport \"../accountingSystem/IAccount.sol\";\r\nimport \"./Configuration.sol\";\r\n\r\ncontract ConfigurationSystem {\r\n    IConfiguration[] private allConfigurations;\r\n\r\n    event ConfigurationCreated(address indexed configurationAddress);\r\n\r\n    function createConfiguration(string memory description) external {\r\n        IConfiguration newConfiguration = new Configuration(description);\r\n        allConfigurations.push(newConfiguration);\r\n        emit ConfigurationCreated(address(newConfiguration));\r\n    }\r\n\r\n    function setAccount(IConfiguration configuration, IAccount account, bool isCredit) external {\r\n        if (isCredit) {\r\n            configuration.setCreditAccount(account);\r\n        } else {\r\n            configuration.setDebitAccount(account);\r\n        }\r\n    }\r\n\r\n    function getAllConfigurations() external view returns (IConfiguration[] memory) {\r\n        return allConfigurations;\r\n    }\r\n}\r\n",
  "sourcePath": "D:\\Workspaces\\vdg-api-accounting\\contracts\\configurationSystem\\ConfigurationSystem.sol",
  "compiler": {
    "name": "solc",
    "version": "0.8.0+commit.c7dfd78e.Emscripten.clang"
  },
  "schemaVersion": "3.4.13",
  "updatedAt": "2023-05-30T01:59:25.256Z",
  "networkType": "ethereum",
  "devdoc": {
    "kind": "dev",
    "methods": {},
    "version": 1
  },
  "userdoc": {
    "kind": "user",
    "methods": {},
    "version": 1
  }
}