{
  "contractName": "Configuration",
  "abi": [
    {
      "inputs": [
        {
          "internalType": "string",
          "name": "description",
          "type": "string"
        }
      ],
      "stateMutability": "nonpayable",
      "type": "constructor"
    },
    {
      "inputs": [],
      "name": "getDebitAccount",
      "outputs": [
        {
          "internalType": "contract IAccount",
          "name": "",
          "type": "address"
        }
      ],
      "stateMutability": "view",
      "type": "function"
    },
    {
      "inputs": [],
      "name": "getCreditAccount",
      "outputs": [
        {
          "internalType": "contract IAccount",
          "name": "",
          "type": "address"
        }
      ],
      "stateMutability": "view",
      "type": "function"
    },
    {
      "inputs": [],
      "name": "getDescription",
      "outputs": [
        {
          "internalType": "string",
          "name": "",
          "type": "string"
        }
      ],
      "stateMutability": "view",
      "type": "function"
    },
    {
      "inputs": [
        {
          "internalType": "contract IAccount",
          "name": "debitAccount",
          "type": "address"
        }
      ],
      "name": "setDebitAccount",
      "outputs": [],
      "stateMutability": "nonpayable",
      "type": "function"
    },
    {
      "inputs": [
        {
          "internalType": "contract IAccount",
          "name": "creditAccount",
          "type": "address"
        }
      ],
      "name": "setCreditAccount",
      "outputs": [],
      "stateMutability": "nonpayable",
      "type": "function"
    },
    {
      "inputs": [
        {
          "internalType": "string",
          "name": "description",
          "type": "string"
        }
      ],
      "name": "setDescription",
      "outputs": [],
      "stateMutability": "nonpayable",
      "type": "function"
    }
  ],
  "bytecode": "0x608060405234801561001057600080fd5b5060405161064238038061064283398101604081905261002f916100e2565b8051610042906003906020840190610049565b50506101f5565b828054610055906101a4565b90600052602060002090601f01602090048101928261007757600085556100bd565b82601f1061009057805160ff19168380011785556100bd565b828001600101855582156100bd579182015b828111156100bd5782518255916020019190600101906100a2565b506100c99291506100cd565b5090565b5b808211156100c957600081556001016100ce565b600060208083850312156100f4578182fd5b82516001600160401b038082111561010a578384fd5b818501915085601f83011261011d578384fd5b81518181111561012f5761012f6101df565b604051601f8201601f1916810185018381118282101715610152576101526101df565b6040528181528382018501881015610168578586fd5b8592505b81831015610189578383018501518184018601529184019161016c565b8183111561019957858583830101525b979650505050505050565b6002810460018216806101b857607f821691505b602082108114156101d957634e487b7160e01b600052602260045260246000fd5b50919050565b634e487b7160e01b600052604160045260246000fd5b61043e806102046000396000f3fe608060405234801561001057600080fd5b50600436106100625760003560e01c80631a0925411461006757806336fc9cee1461008557806343b8865d1461009a57806383b59747146100af57806390c3f38f146100c2578063ac21cb8e146100d5575b600080fd5b61006f6100dd565b60405161007c9190610364565b60405180910390f35b610098610093366004610281565b61016f565b005b6100a2610191565b60405161007c9190610350565b6100986100bd366004610281565b6101a0565b6100986100d03660046102af565b6101c2565b6100a26101d9565b6060600380546100ec906103b7565b80601f0160208091040260200160405190810160405280929190818152602001828054610118906103b7565b80156101655780601f1061013a57610100808354040283529160200191610165565b820191906000526020600020905b81548152906001019060200180831161014857829003601f168201915b5050505050905090565b600080546001600160a01b0319166001600160a01b0392909216919091179055565b6001546001600160a01b031690565b600180546001600160a01b0319166001600160a01b0392909216919091179055565b80516101d59060039060208401906101e8565b5050565b6000546001600160a01b031690565b8280546101f4906103b7565b90600052602060002090601f016020900481019282610216576000855561025c565b82601f1061022f57805160ff191683800117855561025c565b8280016001018555821561025c579182015b8281111561025c578251825591602001919060010190610241565b5061026892915061026c565b5090565b5b80821115610268576000815560010161026d565b600060208284031215610292578081fd5b81356001600160a01b03811681146102a8578182fd5b9392505050565b600060208083850312156102c1578182fd5b823567ffffffffffffffff808211156102d8578384fd5b818501915085601f8301126102eb578384fd5b8135818111156102fd576102fd6103f2565b604051601f8201601f1916810185018381118282101715610320576103206103f2565b6040528181528382018501881015610336578586fd5b818585018683013790810190930193909352509392505050565b6001600160a01b0391909116815260200190565b6000602080835283518082850152825b8181101561039057858101830151858201604001528201610374565b818111156103a15783604083870101525b50601f01601f1916929092016040019392505050565b6002810460018216806103cb57607f821691505b602082108114156103ec57634e487b7160e01b600052602260045260246000fd5b50919050565b634e487b7160e01b600052604160045260246000fdfea26469706673582212208a9af220402b0fe289f72783dee7d000b014b3a13dc8d81ddc2fb81dba03b5fc64736f6c63430008000033",
  "immutableReferences": {},
  "source": "// SPDX-License-Identifier: MIT\r\npragma solidity ^0.8.0;\r\n\r\nimport \"../accountingSystem/IAccount.sol\";\r\nimport \"./IConfiguration.sol\";\r\n\r\ncontract Configuration is IConfiguration {\r\n    IAccount private _debitAccount;\r\n    IAccount private _creditAccount;\r\n    uint256 private _amount;\r\n    string private _description;\r\n\r\n    constructor(\r\n        string memory description\r\n    ) {\r\n        _description = description;\r\n    }\r\n\r\n    function getDebitAccount() external view override returns (IAccount) {\r\n        return _debitAccount;\r\n    }\r\n\r\n    function getCreditAccount() external view override returns (IAccount) {\r\n        return _creditAccount;\r\n    }\r\n\r\n    function getDescription() external view override returns (string memory) {\r\n        return _description;\r\n    }\r\n\r\n    function setDebitAccount(IAccount debitAccount) external override {\r\n        _debitAccount = debitAccount;\r\n    }\r\n\r\n    function setCreditAccount(IAccount creditAccount) external override {\r\n        _creditAccount = creditAccount;\r\n    }\r\n\r\n    function setDescription(string memory description) external override {\r\n        _description = description;\r\n    }\r\n}",
  "sourcePath": "D:\\Workspaces\\vdg-api-accounting\\contracts\\configurationSystem\\Configuration.sol",
  "compiler": {
    "name": "solc",
    "version": "0.8.0+commit.c7dfd78e.Emscripten.clang"
  },
  "schemaVersion": "3.4.13",
  "updatedAt": "2023-05-30T01:57:32.778Z",
  "devdoc": {
    "kind": "dev",
    "methods": {
      "getCreditAccount()": {
        "details": "Devuelve el contrato de la cuenta al haber.",
        "returns": {
          "_0": "IAccount al haber."
        }
      },
      "getDebitAccount()": {
        "details": "Devuelve el contrato de la cuenta al debe.",
        "returns": {
          "_0": "IAccount al debe."
        }
      },
      "getDescription()": {
        "details": "Devuelve la descripcion de la configuracion del asiento.",
        "returns": {
          "_0": "string descripcion de la configuracion del asiento."
        }
      },
      "setCreditAccount(address)": {
        "details": "Establece el contrato de la cuenta al haber.",
        "params": {
          "creditAccount": "El contrato de la cuenta al haber."
        }
      },
      "setDebitAccount(address)": {
        "details": "Establece el contrato de la cuenta al debe.",
        "params": {
          "debitAccount": "El contrato de la cuenta al debe."
        }
      },
      "setDescription(string)": {
        "details": "Establece la descripcion de la configuracion del asiento.",
        "params": {
          "description": "La descripcion de la configuracion del asiento."
        }
      }
    },
    "version": 1
  },
  "userdoc": {
    "kind": "user",
    "methods": {},
    "version": 1
  }
}