{
  "contractName": "Entry",
  "abi": [
    {
      "inputs": [
        {
          "internalType": "contract IAccount",
          "name": "debitAccount",
          "type": "address"
        },
        {
          "internalType": "contract IAccount",
          "name": "creditAccount",
          "type": "address"
        },
        {
          "internalType": "uint256",
          "name": "amount",
          "type": "uint256"
        },
        {
          "internalType": "bytes32",
          "name": "hash",
          "type": "bytes32"
        }
      ],
      "stateMutability": "nonpayable",
      "type": "constructor"
    },
    {
      "anonymous": false,
      "inputs": [
        {
          "indexed": true,
          "internalType": "address",
          "name": "debitAccount",
          "type": "address"
        },
        {
          "indexed": false,
          "internalType": "string",
          "name": "debitAccountName",
          "type": "string"
        },
        {
          "indexed": true,
          "internalType": "address",
          "name": "creditAccount",
          "type": "address"
        },
        {
          "indexed": false,
          "internalType": "string",
          "name": "creditAccountName",
          "type": "string"
        },
        {
          "indexed": false,
          "internalType": "uint256",
          "name": "amount",
          "type": "uint256"
        },
        {
          "indexed": false,
          "internalType": "bytes32",
          "name": "hash",
          "type": "bytes32"
        }
      ],
      "name": "EntryAdded",
      "type": "event"
    },
    {
      "inputs": [],
      "name": "getDebitAccount",
      "outputs": [
        {
          "internalType": "contract IAccount",
          "name": "",
          "type": "address"
        }
      ],
      "stateMutability": "view",
      "type": "function"
    },
    {
      "inputs": [],
      "name": "getCreditAccount",
      "outputs": [
        {
          "internalType": "contract IAccount",
          "name": "",
          "type": "address"
        }
      ],
      "stateMutability": "view",
      "type": "function"
    },
    {
      "inputs": [],
      "name": "getAmount",
      "outputs": [
        {
          "internalType": "uint256",
          "name": "",
          "type": "uint256"
        }
      ],
      "stateMutability": "view",
      "type": "function"
    },
    {
      "inputs": [],
      "name": "getHash",
      "outputs": [
        {
          "internalType": "bytes32",
          "name": "",
          "type": "bytes32"
        }
      ],
      "stateMutability": "view",
      "type": "function"
    }
  ],
  "bytecode": "0x608060405234801561001057600080fd5b5060405161061f38038061061f83398101604081905261002f9161035d565b600080546001600160a01b038087166001600160a01b03199283168117909355600180549187169190921617905560028390556003829055604051633982767f60e21b815263e609d9fc906100889085906004016104ab565b600060405180830381600087803b1580156100a257600080fd5b505af11580156100b6573d6000803e3d6000fd5b50506040516378da744b60e01b81526001600160a01b03861692506378da744b91506100e69085906004016104ab565b600060405180830381600087803b15801561010057600080fd5b505af1158015610114573d6000803e3d6000fd5b50505050826001600160a01b03166310fe9ae86040518163ffffffff1660e01b815260040160206040518083038186803b15801561015157600080fd5b505afa158015610165573d6000803e3d6000fd5b505050506040513d601f19601f82011682018060405250810190610189919061033a565b6001600160a01b0316846001600160a01b03166310fe9ae86040518163ffffffff1660e01b815260040160206040518083038186803b1580156101cb57600080fd5b505afa1580156101df573d6000803e3d6000fd5b505050506040513d601f19601f82011682018060405250810190610203919061033a565b6001600160a01b03167f6dcec020e7dce1d686518fcc035c7c8fcbf6d361775fa6aff729f5ac54c836c5866001600160a01b031663638dc2b56040518163ffffffff1660e01b815260040160006040518083038186803b15801561026657600080fd5b505afa15801561027a573d6000803e3d6000fd5b505050506040513d6000823e601f3d908101601f191682016040526102a291908101906103a4565b866001600160a01b031663638dc2b56040518163ffffffff1660e01b815260040160006040518083038186803b1580156102db57600080fd5b505afa1580156102ef573d6000803e3d6000fd5b505050506040513d6000823e601f3d908101601f1916820160405261031791908101906103a4565b86866040516103299493929190610472565b60405180910390a350505050610512565b60006020828403121561034b578081fd5b8151610356816104fa565b9392505050565b60008060008060808587031215610372578283fd5b845161037d816104fa565b602086015190945061038e816104fa565b6040860151606090960151949790965092505050565b6000602082840312156103b5578081fd5b81516001600160401b03808211156103cb578283fd5b818401915084601f8301126103de578283fd5b8151818111156103f0576103f06104e4565b604051601f8201601f191681016020018381118282101715610414576104146104e4565b60405281815283820160200187101561042b578485fd5b61043c8260208301602087016104b4565b9695505050505050565b6000815180845261045e8160208601602086016104b4565b601f01601f19169290920160200192915050565b6000608082526104856080830187610446565b82810360208401526104978187610446565b604084019590955250506060015292915050565b90815260200190565b60005b838110156104cf5781810151838201526020016104b7565b838111156104de576000848401525b50505050565b634e487b7160e01b600052604160045260246000fd5b6001600160a01b038116811461050f57600080fd5b50565b60ff806105206000396000f3fe6080604052348015600f57600080fd5b506004361060465760003560e01c806343b8865d14604b578063ac21cb8e146065578063d13319c414606b578063d321fe2914607c575b600080fd5b60516082565b604051605c919060b5565b60405180910390f35b60516091565b607160a0565b604051605c919060ac565b607160a6565b6001546001600160a01b031690565b6000546001600160a01b031690565b60035490565b60025490565b90815260200190565b6001600160a01b039190911681526020019056fea26469706673582212203848a3d5fd2c7d4513ba47b97eeda5fb6a713a9f54355563b6a25cb3e68641af64736f6c63430008000033",
  "immutableReferences": {},
  "source": "// SPDX-License-Identifier: MIT\r\npragma solidity ^0.8.0;\r\n\r\nimport \"./IEntry.sol\";\r\nimport \"../accountingSystem/IAccount.sol\";\r\n\r\ncontract Entry is IEntry {\r\n    IAccount private _debitAccount;\r\n    IAccount private _creditAccount;\r\n    uint256 private _amount;\r\n    bytes32 private _hash;\r\n\r\n    event EntryAdded(\r\n        address indexed debitAccount,\r\n        string debitAccountName,\r\n        address indexed creditAccount,\r\n        string creditAccountName,\r\n        uint256 amount,\r\n        bytes32 hash\r\n    );\r\n\r\n\r\n    constructor(IAccount debitAccount, IAccount creditAccount, uint256 amount, bytes32 hash) {\r\n        _debitAccount = debitAccount;\r\n        _creditAccount = creditAccount;\r\n        _amount = amount;\r\n        _hash = hash;\r\n        debitAccount.debit(amount);\r\n        creditAccount.credit(amount);\r\n\r\n        emit EntryAdded(\r\n            debitAccount.getTokenAddress(),\r\n            debitAccount.getAccountName(),\r\n            creditAccount.getTokenAddress(),\r\n            creditAccount.getAccountName(),\r\n            amount,\r\n            hash\r\n        );\r\n    }\r\n\r\n    function getDebitAccount() external view override returns (IAccount) {\r\n        return _debitAccount;\r\n    }\r\n\r\n    function getCreditAccount() external view override returns (IAccount) {\r\n        return _creditAccount;\r\n    }\r\n\r\n    function getAmount() external view override returns (uint256) {\r\n        return _amount;\r\n    }\r\n\r\n    function getHash() external view override returns (bytes32) {\r\n        return _hash;\r\n    }\r\n}",
  "sourcePath": "D:\\Workspaces\\vdg-api-accounting\\contracts\\entrySystem\\Entry.sol",
  "compiler": {
    "name": "solc",
    "version": "0.8.0+commit.c7dfd78e.Emscripten.clang"
  },
  "schemaVersion": "3.4.13",
  "updatedAt": "2023-05-31T18:47:41.673Z",
  "devdoc": {
    "kind": "dev",
    "methods": {
      "getAmount()": {
        "details": "Devuelve el importe del asiento.",
        "returns": {
          "_0": "importe del asiento."
        }
      },
      "getCreditAccount()": {
        "details": "Devuelve el contrato de la cuenta al haber.",
        "returns": {
          "_0": "IAccount al haber."
        }
      },
      "getDebitAccount()": {
        "details": "Devuelve el contrato de la cuenta al debe.",
        "returns": {
          "_0": "IAccount al debe."
        }
      },
      "getHash()": {
        "details": "Devuelve el hash asociado al asientor.",
        "returns": {
          "_0": "bytes32 el hash."
        }
      }
    },
    "version": 1
  },
  "userdoc": {
    "kind": "user",
    "methods": {},
    "version": 1
  }
}