{
  "contractName": "Entry",
  "abi": [
    {
      "inputs": [
        {
          "internalType": "contract IAccount",
          "name": "debitAccount",
          "type": "address"
        },
        {
          "internalType": "contract IAccount",
          "name": "creditAccount",
          "type": "address"
        },
        {
          "internalType": "uint256",
          "name": "amount",
          "type": "uint256"
        },
        {
          "internalType": "bytes32",
          "name": "hash",
          "type": "bytes32"
        }
      ],
      "stateMutability": "nonpayable",
      "type": "constructor"
    },
    {
      "inputs": [],
      "name": "getDebitAccount",
      "outputs": [
        {
          "internalType": "contract IAccount",
          "name": "",
          "type": "address"
        }
      ],
      "stateMutability": "view",
      "type": "function"
    },
    {
      "inputs": [],
      "name": "getCreditAccount",
      "outputs": [
        {
          "internalType": "contract IAccount",
          "name": "",
          "type": "address"
        }
      ],
      "stateMutability": "view",
      "type": "function"
    },
    {
      "inputs": [],
      "name": "getAmount",
      "outputs": [
        {
          "internalType": "uint256",
          "name": "",
          "type": "uint256"
        }
      ],
      "stateMutability": "view",
      "type": "function"
    },
    {
      "inputs": [],
      "name": "getHash",
      "outputs": [
        {
          "internalType": "bytes32",
          "name": "",
          "type": "bytes32"
        }
      ],
      "stateMutability": "view",
      "type": "function"
    }
  ],
  "bytecode": "0x608060405234801561001057600080fd5b5060405161029538038061029583398101604081905261002f9161013d565b600080546001600160a01b038087166001600160a01b03199283168117909355600180549187169190921617905560028390556003829055604051633982767f60e21b815263e609d9fc9061008890859060040161017f565b600060405180830381600087803b1580156100a257600080fd5b505af11580156100b6573d6000803e3d6000fd5b50506040516378da744b60e01b81526001600160a01b03861692506378da744b91506100e690859060040161017f565b600060405180830381600087803b15801561010057600080fd5b505af1158015610114573d6000803e3d6000fd5b5050505050505050610188565b80516001600160a01b038116811461013857600080fd5b919050565b60008060008060808587031215610152578384fd5b61015b85610121565b935061016960208601610121565b6040860151606090960151949790965092505050565b90815260200190565b60ff806101966000396000f3fe6080604052348015600f57600080fd5b506004361060465760003560e01c806343b8865d14604b578063ac21cb8e146065578063d13319c414606b578063d321fe2914607c575b600080fd5b60516082565b604051605c919060b5565b60405180910390f35b60516091565b607160a0565b604051605c919060ac565b607160a6565b6001546001600160a01b031690565b6000546001600160a01b031690565b60035490565b60025490565b90815260200190565b6001600160a01b039190911681526020019056fea264697066735822122029ae57bddab542473a4e826b6dc8a7071ad60d5144fa9cc779ee85d790b86ab664736f6c63430008000033",
  "immutableReferences": {},
  "source": "// SPDX-License-Identifier: MIT\r\npragma solidity ^0.8.0;\r\n\r\nimport \"./IEntry.sol\";\r\nimport \"../accountingSystem/IAccount.sol\";\r\n\r\ncontract Entry is IEntry {\r\n    IAccount private _debitAccount;\r\n    IAccount private _creditAccount;\r\n    uint256 private _amount;\r\n    bytes32 private _hash;\r\n\r\n    constructor(IAccount debitAccount, IAccount creditAccount, uint256 amount, bytes32 hash) {\r\n        _debitAccount = debitAccount;\r\n        _creditAccount = creditAccount;\r\n        _amount = amount;\r\n        _hash = hash;\r\n        debitAccount.debit(amount);\r\n        creditAccount.credit(amount);\r\n    }\r\n\r\n    function getDebitAccount() external view override returns (IAccount) {\r\n        return _debitAccount;\r\n    }\r\n\r\n    function getCreditAccount() external view override returns (IAccount) {\r\n        return _creditAccount;\r\n    }\r\n\r\n    function getAmount() external view override returns (uint256) {\r\n        return _amount;\r\n    }\r\n\r\n    function getHash() external view override returns (bytes32) {\r\n        return _hash;\r\n    }\r\n}",
  "sourcePath": "D:\\Workspaces\\vdg-api-accounting\\contracts\\entrySystem\\Entry.sol",
  "compiler": {
    "name": "solc",
    "version": "0.8.0+commit.c7dfd78e.Emscripten.clang"
  },
  "schemaVersion": "3.4.13",
  "updatedAt": "2023-05-30T01:57:32.783Z",
  "devdoc": {
    "kind": "dev",
    "methods": {
      "getAmount()": {
        "details": "Devuelve el importe del asiento.",
        "returns": {
          "_0": "importe del asiento."
        }
      },
      "getCreditAccount()": {
        "details": "Devuelve el contrato de la cuenta al haber.",
        "returns": {
          "_0": "IAccount al haber."
        }
      },
      "getDebitAccount()": {
        "details": "Devuelve el contrato de la cuenta al debe.",
        "returns": {
          "_0": "IAccount al debe."
        }
      },
      "getHash()": {
        "details": "Devuelve el hash asociado al asientor.",
        "returns": {
          "_0": "bytes32 el hash."
        }
      }
    },
    "version": 1
  },
  "userdoc": {
    "kind": "user",
    "methods": {},
    "version": 1
  }
}