{
  "contractName": "EntrySystem",
  "abi": [
    {
      "inputs": [
        {
          "internalType": "contract IConfiguration",
          "name": "configuration",
          "type": "address"
        },
        {
          "internalType": "uint256",
          "name": "amount",
          "type": "uint256"
        },
        {
          "internalType": "bytes32",
          "name": "hash",
          "type": "bytes32"
        }
      ],
      "name": "createEntry",
      "outputs": [],
      "stateMutability": "nonpayable",
      "type": "function"
    },
    {
      "inputs": [],
      "name": "getAllEntry",
      "outputs": [
        {
          "internalType": "contract IEntry[]",
          "name": "",
          "type": "address[]"
        }
      ],
      "stateMutability": "view",
      "type": "function",
      "constant": true
    }
  ],
  "bytecode": "0x608060405234801561001057600080fd5b50610992806100206000396000f3fe608060405234801561001057600080fd5b50600436106100365760003560e01c80635f4948c41461003b578063da9838ce14610059575b600080fd5b61004361006e565b60405161005091906102af565b60405180910390f35b61006c61006736600461027b565b6100d0565b005b606060008054806020026020016040519081016040528092919081815260200182805480156100c657602002820191906000526020600020905b81546001600160a01b031681526001909101906020018083116100a8575b5050505050905090565b6000836001600160a01b031663ac21cb8e6040518163ffffffff1660e01b815260040160206040518083038186803b15801561010b57600080fd5b505afa15801561011f573d6000803e3d6000fd5b505050506040513d601f19601f820116820180604052508101906101439190610258565b90506000846001600160a01b03166343b8865d6040518163ffffffff1660e01b815260040160206040518083038186803b15801561018057600080fd5b505afa158015610194573d6000803e3d6000fd5b505050506040513d601f19601f820116820180604052508101906101b89190610258565b90506000828286866040516101cc9061024b565b6101d994939291906102fc565b604051809103906000f0801580156101f5573d6000803e3d6000fd5b50600080546001810182559080527f290decd9548b62a8d60345a988386fc84ba6bc95484008f6362f93160ef3e5630180546001600160a01b0319166001600160a01b0392909216919091179055505050505050565b61061f8061033e83390190565b600060208284031215610269578081fd5b815161027481610325565b9392505050565b60008060006060848603121561028f578182fd5b833561029a81610325565b95602085013595506040909401359392505050565b6020808252825182820181905260009190848201906040850190845b818110156102f05783516001600160a01b0316835292840192918401916001016102cb565b50909695505050505050565b6001600160a01b0394851681529290931660208301526040820152606081019190915260800190565b6001600160a01b038116811461033a57600080fd5b5056fe608060405234801561001057600080fd5b5060405161061f38038061061f83398101604081905261002f9161035d565b600080546001600160a01b038087166001600160a01b03199283168117909355600180549187169190921617905560028390556003829055604051633982767f60e21b815263e609d9fc906100889085906004016104ab565b600060405180830381600087803b1580156100a257600080fd5b505af11580156100b6573d6000803e3d6000fd5b50506040516378da744b60e01b81526001600160a01b03861692506378da744b91506100e69085906004016104ab565b600060405180830381600087803b15801561010057600080fd5b505af1158015610114573d6000803e3d6000fd5b50505050826001600160a01b03166310fe9ae86040518163ffffffff1660e01b815260040160206040518083038186803b15801561015157600080fd5b505afa158015610165573d6000803e3d6000fd5b505050506040513d601f19601f82011682018060405250810190610189919061033a565b6001600160a01b0316846001600160a01b03166310fe9ae86040518163ffffffff1660e01b815260040160206040518083038186803b1580156101cb57600080fd5b505afa1580156101df573d6000803e3d6000fd5b505050506040513d601f19601f82011682018060405250810190610203919061033a565b6001600160a01b03167f6dcec020e7dce1d686518fcc035c7c8fcbf6d361775fa6aff729f5ac54c836c5866001600160a01b031663638dc2b56040518163ffffffff1660e01b815260040160006040518083038186803b15801561026657600080fd5b505afa15801561027a573d6000803e3d6000fd5b505050506040513d6000823e601f3d908101601f191682016040526102a291908101906103a4565b866001600160a01b031663638dc2b56040518163ffffffff1660e01b815260040160006040518083038186803b1580156102db57600080fd5b505afa1580156102ef573d6000803e3d6000fd5b505050506040513d6000823e601f3d908101601f1916820160405261031791908101906103a4565b86866040516103299493929190610472565b60405180910390a350505050610512565b60006020828403121561034b578081fd5b8151610356816104fa565b9392505050565b60008060008060808587031215610372578283fd5b845161037d816104fa565b602086015190945061038e816104fa565b6040860151606090960151949790965092505050565b6000602082840312156103b5578081fd5b81516001600160401b03808211156103cb578283fd5b818401915084601f8301126103de578283fd5b8151818111156103f0576103f06104e4565b604051601f8201601f191681016020018381118282101715610414576104146104e4565b60405281815283820160200187101561042b578485fd5b61043c8260208301602087016104b4565b9695505050505050565b6000815180845261045e8160208601602086016104b4565b601f01601f19169290920160200192915050565b6000608082526104856080830187610446565b82810360208401526104978187610446565b604084019590955250506060015292915050565b90815260200190565b60005b838110156104cf5781810151838201526020016104b7565b838111156104de576000848401525b50505050565b634e487b7160e01b600052604160045260246000fd5b6001600160a01b038116811461050f57600080fd5b50565b60ff806105206000396000f3fe6080604052348015600f57600080fd5b506004361060465760003560e01c806343b8865d14604b578063ac21cb8e146065578063d13319c414606b578063d321fe2914607c575b600080fd5b60516082565b604051605c919060b5565b60405180910390f35b60516091565b607160a0565b604051605c919060ac565b607160a6565b6001546001600160a01b031690565b6000546001600160a01b031690565b60035490565b60025490565b90815260200190565b6001600160a01b039190911681526020019056fea26469706673582212203848a3d5fd2c7d4513ba47b97eeda5fb6a713a9f54355563b6a25cb3e68641af64736f6c63430008000033a2646970667358221220ab5db0188af0ab2f5a5fde528feda7c68cd600efbd1cc70f35bdcac35536afb664736f6c63430008000033",
  "immutableReferences": {},
  "source": "// SPDX-License-Identifier: MIT\r\npragma solidity ^0.8.0;\r\n\r\nimport \"../accountingSystem/IAccount.sol\";\r\nimport \"./IEntry.sol\";\r\nimport \"./Entry.sol\";\r\nimport \"../configurationSystem/IConfiguration.sol\";\r\n\r\ncontract EntrySystem {\r\n\r\n    IEntry[] private allEntry;\r\n\r\n    function createEntry(IConfiguration configuration, uint256 amount, bytes32 hash ) external {\r\n        IAccount debitAccount = configuration.getDebitAccount();\r\n        IAccount creditAccount = configuration.getCreditAccount();\r\n\r\n        IEntry newEntry = new Entry(debitAccount, creditAccount, amount, hash);\r\n        allEntry.push(newEntry);\r\n    }\r\n\r\n    function getAllEntry() external view returns (IEntry[] memory) {\r\n        return allEntry;\r\n    }\r\n\r\n\r\n}",
  "sourcePath": "D:\\Workspaces\\vdg-api-accounting\\contracts\\entrySystem\\EntrySystem.sol",
  "compiler": {
    "name": "solc",
    "version": "0.8.0+commit.c7dfd78e.Emscripten.clang"
  },
  "schemaVersion": "3.4.13",
  "updatedAt": "2023-05-31T18:50:00.410Z",
  "networkType": "ethereum",
  "devdoc": {
    "kind": "dev",
    "methods": {},
    "version": 1
  },
  "userdoc": {
    "kind": "user",
    "methods": {},
    "version": 1
  }
}