{
  "contractName": "LiabilityAccount",
  "abi": [
    {
      "inputs": [
        {
          "internalType": "string",
          "name": "_accountName",
          "type": "string"
        },
        {
          "internalType": "address",
          "name": "_tokenAddress",
          "type": "address"
        },
        {
          "internalType": "address",
          "name": "instanceAccountingToken",
          "type": "address"
        }
      ],
      "stateMutability": "nonpayable",
      "type": "constructor"
    },
    {
      "inputs": [],
      "name": "accountName",
      "outputs": [
        {
          "internalType": "string",
          "name": "",
          "type": "string"
        }
      ],
      "stateMutability": "view",
      "type": "function"
    },
    {
      "inputs": [],
      "name": "balance",
      "outputs": [
        {
          "internalType": "uint256",
          "name": "",
          "type": "uint256"
        }
      ],
      "stateMutability": "view",
      "type": "function"
    },
    {
      "inputs": [],
      "name": "decimals",
      "outputs": [
        {
          "internalType": "uint8",
          "name": "",
          "type": "uint8"
        }
      ],
      "stateMutability": "view",
      "type": "function"
    },
    {
      "inputs": [],
      "name": "owner",
      "outputs": [
        {
          "internalType": "address",
          "name": "",
          "type": "address"
        }
      ],
      "stateMutability": "view",
      "type": "function"
    },
    {
      "inputs": [],
      "name": "tokenAddress",
      "outputs": [
        {
          "internalType": "address",
          "name": "",
          "type": "address"
        }
      ],
      "stateMutability": "view",
      "type": "function"
    },
    {
      "inputs": [],
      "name": "getAccountName",
      "outputs": [
        {
          "internalType": "string",
          "name": "",
          "type": "string"
        }
      ],
      "stateMutability": "view",
      "type": "function"
    },
    {
      "inputs": [
        {
          "internalType": "string",
          "name": "_accountName",
          "type": "string"
        }
      ],
      "name": "setAccountName",
      "outputs": [],
      "stateMutability": "nonpayable",
      "type": "function"
    },
    {
      "inputs": [
        {
          "internalType": "uint256",
          "name": "_amount",
          "type": "uint256"
        }
      ],
      "name": "debit",
      "outputs": [],
      "stateMutability": "nonpayable",
      "type": "function"
    },
    {
      "inputs": [
        {
          "internalType": "uint256",
          "name": "_amount",
          "type": "uint256"
        }
      ],
      "name": "credit",
      "outputs": [],
      "stateMutability": "nonpayable",
      "type": "function"
    },
    {
      "inputs": [],
      "name": "getBalance",
      "outputs": [
        {
          "internalType": "uint256",
          "name": "",
          "type": "uint256"
        }
      ],
      "stateMutability": "view",
      "type": "function"
    },
    {
      "inputs": [],
      "name": "getTokenAddress",
      "outputs": [
        {
          "internalType": "address",
          "name": "",
          "type": "address"
        }
      ],
      "stateMutability": "view",
      "type": "function"
    }
  ],
  "bytecode": "0x60806040523480156200001157600080fd5b5060405162000b7a38038062000b7a833981016040819052620000349162000152565b600280546001600160a01b0319163317905582516200005b9060019060208601906200008f565b50600380546001600160a01b039384166001600160a01b03199182161790915560048054929093169116179055506200029b565b8280546200009d9062000248565b90600052602060002090601f016020900481019282620000c157600085556200010c565b82601f10620000dc57805160ff19168380011785556200010c565b828001600101855582156200010c579182015b828111156200010c578251825591602001919060010190620000ef565b506200011a9291506200011e565b5090565b5b808211156200011a57600081556001016200011f565b80516001600160a01b03811681146200014d57600080fd5b919050565b60008060006060848603121562000167578283fd5b83516001600160401b03808211156200017e578485fd5b818601915086601f83011262000192578485fd5b815181811115620001a757620001a762000285565b6040516020601f8301601f1916820181018481118382101715620001cf57620001cf62000285565b60405282825284830181018a1015620001e6578788fd5b8793505b82841015620002095784840181015182850182015292830192620001ea565b828411156200021a57878184840101525b8197506200022a818a0162000135565b965050505050506200023f6040850162000135565b90509250925092565b6002810460018216806200025d57607f821691505b602082108114156200027f57634e487b7160e01b600052602260045260246000fd5b50919050565b634e487b7160e01b600052604160045260246000fd5b6108cf80620002ab6000396000f3fe608060405234801561001057600080fd5b50600436106100a95760003560e01c806378da744b1161007157806378da744b146101205780638da5cb5b146101335780639d76ea581461013b578063b69ef8a814610143578063c5e579851461014b578063e609d9fc14610153576100a9565b806310fe9ae8146100ae57806312065fe0146100cc5780632e95adad146100e1578063313ce567146100f6578063638dc2b51461010b575b600080fd5b6100b6610166565b6040516100c391906105b4565b60405180910390f35b6100d4610175565b6040516100c391906106aa565b6100f46100ef3660046104fb565b61017b565b005b6100fe6101c5565b6040516100c391906106b3565b6101136101ca565b6040516100c391906105e1565b6100f461012e36600461059c565b61025c565b6100b66102ec565b6100b66102fb565b6100d461030a565b610113610310565b6100f461016136600461059c565b61039e565b6003546001600160a01b031690565b60005490565b6002546001600160a01b031633146101ae5760405162461bcd60e51b81526004016101a590610663565b60405180910390fd5b80516101c1906001906020840190610462565b5050565b601281565b6060600180546101d990610832565b80601f016020809104026020016040519081016040528092919081815260200182805461020590610832565b80156102525780601f1061022757610100808354040283529160200191610252565b820191906000526020600020905b81548152906001019060200180831161023557829003601f168201915b5050505050905090565b600061026782610444565b600480546003546040516340c10f1960e01b81529394506001600160a01b03918216936340c10f19936102a093909216918691016105c8565b600060405180830381600087803b1580156102ba57600080fd5b505af11580156102ce573d6000803e3d6000fd5b50505050816000808282546102e391906106c1565b90915550505050565b6002546001600160a01b031681565b6003546001600160a01b031681565b60005481565b6001805461031d90610832565b80601f016020809104026020016040519081016040528092919081815260200182805461034990610832565b80156103965780601f1061036b57610100808354040283529160200191610396565b820191906000526020600020905b81548152906001019060200180831161037957829003601f168201915b505050505081565b60006103a982610444565b90508160005410156103cd5760405162461bcd60e51b81526004016101a590610634565b60048054600354604051632770a7eb60e21b81526001600160a01b0392831693639dc29fac936104019316918691016105c8565b600060405180830381600087803b15801561041b57600080fd5b505af115801561042f573d6000803e3d6000fd5b50505050816000808282546102e3919061081b565b60006104526012600a61071f565b61045c90836107fc565b92915050565b82805461046e90610832565b90600052602060002090601f01602090048101928261049057600085556104d6565b82601f106104a957805160ff19168380011785556104d6565b828001600101855582156104d6579182015b828111156104d65782518255916020019190600101906104bb565b506104e29291506104e6565b5090565b5b808211156104e257600081556001016104e7565b6000602080838503121561050d578182fd5b823567ffffffffffffffff80821115610524578384fd5b818501915085601f830112610537578384fd5b81358181111561054957610549610883565b604051601f8201601f191681018501838111828210171561056c5761056c610883565b6040528181528382018501881015610582578586fd5b818585018683013790810190930193909352509392505050565b6000602082840312156105ad578081fd5b5035919050565b6001600160a01b0391909116815260200190565b6001600160a01b03929092168252602082015260400190565b6000602080835283518082850152825b8181101561060d578581018301518582016040015282016105f1565b8181111561061e5783604083870101525b50601f01601f1916929092016040019392505050565b60208082526015908201527424b739bab33334b1b4b2b73a103130b630b731b29760591b604082015260600190565b60208082526027908201527f4f6e6c7920746865206f776e65722063616e20706572666f726d20746869732060408201526630b1ba34b7b71760c91b606082015260800190565b90815260200190565b60ff91909116815260200190565b600082198211156106d4576106d461086d565b500190565b80825b60018086116106eb5750610716565b8187048211156106fd576106fd61086d565b8086161561070a57918102915b9490941c9380026106dc565b94509492505050565b600061073160001960ff851684610738565b9392505050565b60008261074757506001610731565b8161075457506000610731565b816001811461076a5760028114610774576107a1565b6001915050610731565b60ff8411156107855761078561086d565b6001841b91508482111561079b5761079b61086d565b50610731565b5060208310610133831016604e8410600b84101617156107d4575081810a838111156107cf576107cf61086d565b610731565b6107e184848460016106d9565b8086048211156107f3576107f361086d565b02949350505050565b60008160001904831182151516156108165761081661086d565b500290565b60008282101561082d5761082d61086d565b500390565b60028104600182168061084657607f821691505b6020821081141561086757634e487b7160e01b600052602260045260246000fd5b50919050565b634e487b7160e01b600052601160045260246000fd5b634e487b7160e01b600052604160045260246000fdfea26469706673582212209be56cdc636bf1ec6569ad923f362ed1436a6480c591720af308b40157899ed564736f6c63430008000033",
  "immutableReferences": {},
  "source": "// SPDX-License-Identifier: MIT\r\npragma solidity ^0.8.0;\r\n\r\nimport \"./IAccount.sol\";\r\nimport \"../tokens/AccountingToken.sol\"; \r\n\r\n/**\r\n * @title LiabilityAccount\r\n * @dev Contrato para una cuenta de pasivo.\r\n */\r\ncontract LiabilityAccount is IAccount {\r\n    uint256 public balance;\r\n    string public accountName;\r\n    address public owner;\r\n    address public tokenAddress;\r\n    AccountingToken private token;\r\n    uint8 public constant decimals = 18;\r\n\r\n    constructor(string memory _accountName, address _tokenAddress, address instanceAccountingToken) {\r\n        owner = msg.sender;\r\n        accountName = _accountName;\r\n        tokenAddress = _tokenAddress;\r\n        token = AccountingToken(instanceAccountingToken);\r\n    }\r\n\r\n    /**\r\n     * @dev Devuelve el nombre de la cuenta.\r\n     * @return string Nombre de la cuenta.\r\n     */\r\n    function getAccountName() external view override returns (string memory) {\r\n        return accountName;\r\n    }\r\n\r\n    /**\r\n     * @dev Cambia el nombre de la cuenta.\r\n     * @param _accountName Nuevo nombre de la cuenta.\r\n     */\r\n    function setAccountName(string memory _accountName) public override {\r\n        require(msg.sender == owner, \"Only the owner can perform this action.\");\r\n        accountName = _accountName;\r\n    }\r\n\r\n    /**\r\n     * @dev Debita una cantidad de la cuenta.\r\n     * @param _amount Cantidad a debitar.\r\n     */\r\n    function debit(uint256 _amount) public override {\r\n        uint256 tokenAmount = toTokenUnits(_amount);\r\n        require(balance >= _amount, \"Insufficient balance.\");\r\n        token.burn(tokenAddress, tokenAmount);\r\n        balance -= _amount;\r\n    }\r\n\r\n    /**\r\n     * @dev Acredita una cantidad a la cuenta.\r\n     * @param _amount Cantidad a acreditar.\r\n     */\r\n    function credit(uint256 _amount) public override {\r\n        uint256 tokenAmount = toTokenUnits(_amount);\r\n        token.mint(tokenAddress, tokenAmount);\r\n        balance += _amount;\r\n    }\r\n\r\n    /**\r\n     * @dev Devuelve el balance de la cuenta.\r\n     * @return uint256 Balance de la cuenta.\r\n     */\r\n    function getBalance() external view override returns (uint256) {\r\n        return balance;\r\n    }\r\n\r\n    /**\r\n     * @dev Devuelve el token address.\r\n     * @return addess Nombre de la cuenta.\r\n     */\r\n    function getTokenAddress() external view override returns (address) {\r\n        return tokenAddress;\r\n    }\r\n    \r\n    function toTokenUnits(uint256 amount) internal pure returns (uint256) {\r\n    return amount * (10 ** decimals);\r\n    }\r\n}\r\n",
  "sourcePath": "D:\\Workspaces\\vdg-api-accounting\\contracts\\accountingSystem\\LiabilityAccount.sol",
  "compiler": {
    "name": "solc",
    "version": "0.8.0+commit.c7dfd78e.Emscripten.clang"
  },
  "schemaVersion": "3.4.13",
  "updatedAt": "2023-05-30T01:57:32.769Z",
  "devdoc": {
    "details": "Contrato para una cuenta de pasivo.",
    "kind": "dev",
    "methods": {
      "credit(uint256)": {
        "details": "Acredita una cantidad a la cuenta.",
        "params": {
          "_amount": "Cantidad a acreditar."
        }
      },
      "debit(uint256)": {
        "details": "Debita una cantidad de la cuenta.",
        "params": {
          "_amount": "Cantidad a debitar."
        }
      },
      "getAccountName()": {
        "details": "Devuelve el nombre de la cuenta.",
        "returns": {
          "_0": "string Nombre de la cuenta."
        }
      },
      "getBalance()": {
        "details": "Devuelve el balance de la cuenta.",
        "returns": {
          "_0": "uint256 Balance de la cuenta."
        }
      },
      "getTokenAddress()": {
        "details": "Devuelve el token address.",
        "returns": {
          "_0": "addess Nombre de la cuenta."
        }
      },
      "setAccountName(string)": {
        "details": "Cambia el nombre de la cuenta.",
        "params": {
          "_accountName": "Nuevo nombre de la cuenta."
        }
      }
    },
    "title": "LiabilityAccount",
    "version": 1
  },
  "userdoc": {
    "kind": "user",
    "methods": {},
    "version": 1
  }
}