{
  "contractName": "LoanFactory",
  "abi": [
    {
      "inputs": [
        {
          "internalType": "contract ObligationToken",
          "name": "_token",
          "type": "address"
        }
      ],
      "stateMutability": "nonpayable",
      "type": "constructor"
    },
    {
      "inputs": [],
      "name": "token",
      "outputs": [
        {
          "internalType": "contract ObligationToken",
          "name": "",
          "type": "address"
        }
      ],
      "stateMutability": "view",
      "type": "function",
      "constant": true
    },
    {
      "inputs": [
        {
          "internalType": "uint256",
          "name": "amount",
          "type": "uint256"
        },
        {
          "internalType": "uint256",
          "name": "interestRate",
          "type": "uint256"
        },
        {
          "internalType": "contract IConfiguration",
          "name": "startLoanEntry",
          "type": "address"
        },
        {
          "internalType": "contract IConfiguration",
          "name": "repayLoanEntry",
          "type": "address"
        },
        {
          "internalType": "contract IConfiguration",
          "name": "repayInterestLoanEntry",
          "type": "address"
        }
      ],
      "name": "createLoan",
      "outputs": [],
      "stateMutability": "nonpayable",
      "type": "function"
    },
    {
      "inputs": [],
      "name": "getAllLoans",
      "outputs": [
        {
          "internalType": "contract Loan[]",
          "name": "",
          "type": "address[]"
        }
      ],
      "stateMutability": "view",
      "type": "function",
      "constant": true
    }
  ],
  "bytecode": "0x608060405234801561001057600080fd5b50604051610c01380380610c0183398101604081905261002f91610054565b600180546001600160a01b0319166001600160a01b0392909216919091179055610082565b600060208284031215610065578081fd5b81516001600160a01b038116811461007b578182fd5b9392505050565b610b70806100916000396000f3fe608060405234801561001057600080fd5b50600436106100415760003560e01c80636cb2960f14610046578063a5bfd16a1461005b578063fc0c546a14610079575b600080fd5b6100596100543660046101d4565b61008e565b005b61006361013a565b604051610070919061026b565b60405180910390f35b61008161019c565b60405161007091906102b8565b6000338686600160009054906101000a90046001600160a01b03168787876040516100b8906101ab565b6100c8979695949392919061022a565b604051809103906000f0801580156100e4573d6000803e3d6000fd5b50600080546001810182559080527f290decd9548b62a8d60345a988386fc84ba6bc95484008f6362f93160ef3e5630180546001600160a01b0319166001600160a01b0392909216919091179055505050505050565b6060600080548060200260200160405190810160405280929190818152602001828054801561019257602002820191906000526020600020905b81546001600160a01b03168152600190910190602001808311610174575b5050505050905090565b6001546001600160a01b031681565b61086e806102cd83390190565b80356001600160a01b03811681146101cf57600080fd5b919050565b600080600080600060a086880312156101eb578081fd5b8535945060208601359350610202604087016101b8565b9250610210606087016101b8565b915061021e608087016101b8565b90509295509295909350565b6001600160a01b03978816815260208101969096526040860194909452918516606085015284166080840152831660a083015290911660c082015260e00190565b6020808252825182820181905260009190848201906040850190845b818110156102ac5783516001600160a01b031683529284019291840191600101610287565b50909695505050505050565b6001600160a01b039190911681526020019056fe608060405234801561001057600080fd5b5060405161086e38038061086e83398101604081905261002f916100b6565b600080546001600160a01b03199081166001600160a01b03998a16179091556002969096556003949094556005805460068054881694891694909417909355600780548716928816929092179091556008805490951693861693909317909355610100600160a81b031990921661010092909316919091029190911760ff19169055610156565b600080600080600080600060e0888a0312156100d0578283fd5b87516100db8161013e565b80975050602088015195506040880151945060608801516100fb8161013e565b608089015190945061010c8161013e565b60a089015190935061011d8161013e565b60c089015190925061012e8161013e565b8091505092959891949750929550565b6001600160a01b038116811461015357600080fd5b50565b610709806101656000396000f3fe608060405234801561001057600080fd5b50600436106101425760003560e01c80637df1f1b9116100b8578063d321fe291161007c578063d321fe2914610204578063e12317761461020c578063eb0c495514610214578063f966ade71461021c578063fc0c546a14610224578063fe82c83e1461022c57610142565b80637df1f1b9146101dc578063aa8c217c146101e4578063b9dce730146101ec578063bada85dc146101f4578063bcead63e146101fc57610142565b80633a50e2ba1161010a5780633a50e2ba146101925780633cd967a81461019a57806348b75090146101af5780635257b566146101b757806360489c3b146101cc5780637c3a00fd146101d457610142565b80630aced73f146101475780631cb0c3e71461016557806321df0da71461016d578063281c842f14610175578063337393a81461017d575b600080fd5b61014f610234565b60405161015c91906105a7565b60405180910390f35b61014f610243565b61014f610252565b61014f610266565b61019061018b366004610559565b610275565b005b61014f610362565b6101a2610371565b60405161015c91906105df565b6101a261037a565b6101bf610383565b60405161015c9190610646565b6101bf610389565b6101bf61038f565b61014f610395565b6101bf6103a4565b61014f6103aa565b61014f6103b9565b61014f6103c8565b6101bf6103d7565b6101bf6103dd565b6101bf6103e3565b610190610454565b61014f610536565b61014f61054a565b6007546001600160a01b031681565b6001546001600160a01b031690565b60055461010090046001600160a01b031690565b6006546001600160a01b031681565b60055460ff16156102a15760405162461bcd60e51b815260040161029890610616565b60405180910390fd5b600180546001600160a01b0319166001600160a01b0383811691909117918290556005546000546002546040516323b872dd60e01b81526101009093048416946323b872dd946102fb9493811693911691906004016105bb565b602060405180830381600087803b15801561031557600080fd5b505af1158015610329573d6000803e3d6000fd5b505050506040513d601f19601f8201168201806040525081019061034d9190610587565b50506005805460ff1916600117905542600455565b6008546001600160a01b031690565b60055460ff1690565b60055460ff1681565b60035490565b60045490565b60035481565b6001546001600160a01b031681565b60025481565b6007546001600160a01b031690565b6008546001600160a01b031681565b6000546001600160a01b031681565b60025490565b60045481565b60055460009060ff166104085760405162461bcd60e51b8152600401610298906105ea565b60006004544261041891906106a6565b905060006a1a1601fc4ea7109e000000826003546002546104399190610687565b6104439190610687565b61044d9190610667565b9250505090565b60055460ff166104765760405162461bcd60e51b8152600401610298906105ea565b60006104806103e3565b9050600081600254610492919061064f565b6005546001546000546040516323b872dd60e01b81529394506001600160a01b036101009093048316936323b872dd936104d593811692169086906004016105bb565b602060405180830381600087803b1580156104ef57600080fd5b505af1158015610503573d6000803e3d6000fd5b505050506040513d601f19601f820116820180604052508101906105279190610587565b50506005805460ff1916905550565b60055461010090046001600160a01b031681565b6006546001600160a01b031690565b60006020828403121561056a578081fd5b81356001600160a01b0381168114610580578182fd5b9392505050565b600060208284031215610598578081fd5b81518015158114610580578182fd5b6001600160a01b0391909116815260200190565b6001600160a01b039384168152919092166020820152604081019190915260600190565b901515815260200190565b6020808252601290820152714c6f616e206973206e6f742061637469766560701b604082015260600190565b6020808252601690820152754c6f616e20697320616c72656164792061637469766560501b604082015260600190565b90815260200190565b60008219821115610662576106626106bd565b500190565b60008261068257634e487b7160e01b81526012600452602481fd5b500490565b60008160001904831182151516156106a1576106a16106bd565b500290565b6000828210156106b8576106b86106bd565b500390565b634e487b7160e01b600052601160045260246000fdfea264697066735822122015afa31658871effdcf07f793a6c9e9de1c1f39eb9cfa30aacfcb87dc0f61bc464736f6c63430008000033a2646970667358221220db3e1a577b6e4433bfe95f8e8d76b71d196f422645b8bc240c9bba1031097fe664736f6c63430008000033",
  "immutableReferences": {},
  "source": "// SPDX-License-Identifier: MIT\r\npragma solidity ^0.8.0;\r\n\r\nimport \"./Loan.sol\";\r\nimport \"../tokens/ObligationToken.sol\";\r\nimport \"../configurationSystem/IConfiguration.sol\";\r\n\r\ncontract LoanFactory {\r\n    Loan[] private allLoans;\r\n    ObligationToken public token;\r\n\r\n    constructor(ObligationToken _token) {\r\n        token = _token;\r\n    }\r\n\r\n    function createLoan(\r\n        uint256 amount,\r\n        uint256 interestRate,\r\n        IConfiguration startLoanEntry,\r\n        IConfiguration repayLoanEntry,\r\n        IConfiguration repayInterestLoanEntry\r\n    ) external {\r\n        Loan newLoan = new Loan(\r\n            msg.sender,\r\n            amount,\r\n            interestRate,\r\n            token,\r\n            startLoanEntry,\r\n            repayLoanEntry,\r\n            repayInterestLoanEntry\r\n        );\r\n        allLoans.push(newLoan);\r\n    }\r\n\r\n    function getAllLoans() external view returns (Loan[] memory) {\r\n        return allLoans;\r\n    }\r\n}\r\n",
  "sourcePath": "D:\\Workspaces\\vdg-api-accounting\\contracts\\loanFactory\\LoanFactory.sol",
  "compiler": {
    "name": "solc",
    "version": "0.8.0+commit.c7dfd78e.Emscripten.clang"
  },
  "schemaVersion": "3.4.13",
  "updatedAt": "2023-05-30T02:00:25.802Z",
  "networkType": "ethereum",
  "devdoc": {
    "kind": "dev",
    "methods": {},
    "version": 1
  },
  "userdoc": {
    "kind": "user",
    "methods": {},
    "version": 1
  }
}