{
  "contractName": "ResultAccount",
  "abi": [
    {
      "inputs": [
        {
          "internalType": "string",
          "name": "_accountName",
          "type": "string"
        },
        {
          "internalType": "bool",
          "name": "_isExpense",
          "type": "bool"
        },
        {
          "internalType": "address",
          "name": "_tokenAddress",
          "type": "address"
        },
        {
          "internalType": "address",
          "name": "instanceAccountingToken",
          "type": "address"
        }
      ],
      "stateMutability": "nonpayable",
      "type": "constructor"
    },
    {
      "inputs": [],
      "name": "accountName",
      "outputs": [
        {
          "internalType": "string",
          "name": "",
          "type": "string"
        }
      ],
      "stateMutability": "view",
      "type": "function"
    },
    {
      "inputs": [],
      "name": "balance",
      "outputs": [
        {
          "internalType": "uint256",
          "name": "",
          "type": "uint256"
        }
      ],
      "stateMutability": "view",
      "type": "function"
    },
    {
      "inputs": [],
      "name": "decimals",
      "outputs": [
        {
          "internalType": "uint8",
          "name": "",
          "type": "uint8"
        }
      ],
      "stateMutability": "view",
      "type": "function"
    },
    {
      "inputs": [],
      "name": "isExpense",
      "outputs": [
        {
          "internalType": "bool",
          "name": "",
          "type": "bool"
        }
      ],
      "stateMutability": "view",
      "type": "function"
    },
    {
      "inputs": [],
      "name": "owner",
      "outputs": [
        {
          "internalType": "address",
          "name": "",
          "type": "address"
        }
      ],
      "stateMutability": "view",
      "type": "function"
    },
    {
      "inputs": [],
      "name": "tokenAddress",
      "outputs": [
        {
          "internalType": "address",
          "name": "",
          "type": "address"
        }
      ],
      "stateMutability": "view",
      "type": "function"
    },
    {
      "inputs": [],
      "name": "getAccountName",
      "outputs": [
        {
          "internalType": "string",
          "name": "",
          "type": "string"
        }
      ],
      "stateMutability": "view",
      "type": "function"
    },
    {
      "inputs": [
        {
          "internalType": "string",
          "name": "_accountName",
          "type": "string"
        }
      ],
      "name": "setAccountName",
      "outputs": [],
      "stateMutability": "nonpayable",
      "type": "function"
    },
    {
      "inputs": [
        {
          "internalType": "uint256",
          "name": "_amount",
          "type": "uint256"
        }
      ],
      "name": "debit",
      "outputs": [],
      "stateMutability": "nonpayable",
      "type": "function"
    },
    {
      "inputs": [
        {
          "internalType": "uint256",
          "name": "_amount",
          "type": "uint256"
        }
      ],
      "name": "credit",
      "outputs": [],
      "stateMutability": "nonpayable",
      "type": "function"
    },
    {
      "inputs": [],
      "name": "getBalance",
      "outputs": [
        {
          "internalType": "uint256",
          "name": "",
          "type": "uint256"
        }
      ],
      "stateMutability": "view",
      "type": "function"
    },
    {
      "inputs": [],
      "name": "getTokenAddress",
      "outputs": [
        {
          "internalType": "address",
          "name": "",
          "type": "address"
        }
      ],
      "stateMutability": "view",
      "type": "function"
    }
  ],
  "bytecode": "0x60806040523480156200001157600080fd5b5060405162000d3838038062000d38833981016040819052620000349162000180565b600180546001600160a01b0319163317905583516200005b906000906020870190620000ac565b5060018054931515600160a01b0260ff60a01b1990941693909317909255600380546001600160a01b039283166001600160a01b0319918216179091556004805492909316911617905550620002dc565b828054620000ba9062000289565b90600052602060002090601f016020900481019282620000de576000855562000129565b82601f10620000f957805160ff191683800117855562000129565b8280016001018555821562000129579182015b82811115620001295782518255916020019190600101906200010c565b50620001379291506200013b565b5090565b5b808211156200013757600081556001016200013c565b80516001600160a01b03811681146200016a57600080fd5b919050565b805180151581146200016a57600080fd5b6000806000806080858703121562000196578384fd5b84516001600160401b0380821115620001ad578586fd5b818701915087601f830112620001c1578586fd5b815181811115620001d657620001d6620002c6565b6040516020601f8301601f1916820181018481118382101715620001fe57620001fe620002c6565b60405282825284830181018b101562000215578889fd5b8893505b8284101562000238578484018101518285018201529283019262000219565b828411156200024957888184840101525b81985062000259818b016200016f565b975050505050506200026e6040860162000152565b91506200027e6060860162000152565b905092959194509250565b6002810460018216806200029e57607f821691505b60208210811415620002c057634e487b7160e01b600052602260045260246000fd5b50919050565b634e487b7160e01b600052604160045260246000fd5b610a4c80620002ec6000396000f3fe608060405234801561001057600080fd5b50600436106100b45760003560e01c806378da744b1161007157806378da744b146101405780638da5cb5b146101535780639d76ea581461015b578063b69ef8a814610163578063c5e579851461016b578063e609d9fc14610173576100b4565b80630cd9d695146100b957806310fe9ae8146100d757806312065fe0146100ec5780632e95adad14610101578063313ce56714610116578063638dc2b51461012b575b600080fd5b6100c1610186565b6040516100ce9190610753565b60405180910390f35b6100df610196565b6040516100ce9190610726565b6100f46101a5565b6040516100ce9190610827565b61011461010f36600461066d565b6101ab565b005b61011e6101f5565b6040516100ce9190610830565b6101336101fa565b6040516100ce919061075e565b61011461014e36600461070e565b61028c565b6100df6103d2565b6100df6103e1565b6100f46103f0565b6101336103f6565b61011461018136600461070e565b610484565b600154600160a01b900460ff1681565b6003546001600160a01b031690565b60025490565b6001546001600160a01b031633146101de5760405162461bcd60e51b81526004016101d5906107e0565b60405180910390fd5b80516101f19060009060208401906105d4565b5050565b601281565b606060008054610209906109af565b80601f0160208091040260200160405190810160405280929190818152602001828054610235906109af565b80156102825780601f1061025757610100808354040283529160200191610282565b820191906000526020600020905b81548152906001019060200180831161026557829003601f168201915b5050505050905090565b6000610297826105b6565b600154909150600160a01b900460ff1615610351578160025410156102ce5760405162461bcd60e51b81526004016101d5906107b1565b60048054600354604051632770a7eb60e21b81526001600160a01b0392831693639dc29fac9361030293169186910161073a565b600060405180830381600087803b15801561031c57600080fd5b505af1158015610330573d6000803e3d6000fd5b5050505081600260008282546103469190610998565b909155506101f19050565b600480546003546040516340c10f1960e01b81526001600160a01b03928316936340c10f199361038593169186910161073a565b600060405180830381600087803b15801561039f57600080fd5b505af11580156103b3573d6000803e3d6000fd5b5050505081600260008282546103c9919061083e565b90915550505050565b6001546001600160a01b031681565b6003546001600160a01b031681565b60025481565b60008054610403906109af565b80601f016020809104026020016040519081016040528092919081815260200182805461042f906109af565b801561047c5780601f106104515761010080835404028352916020019161047c565b820191906000526020600020905b81548152906001019060200180831161045f57829003601f168201915b505050505081565b600061048f826105b6565b600154909150600160a01b900460ff161561051c57600480546003546040516340c10f1960e01b81526001600160a01b03928316936340c10f19936104d893169186910161073a565b600060405180830381600087803b1580156104f257600080fd5b505af1158015610506573d6000803e3d6000fd5b505050508160026000828254610346919061083e565b81600254101561053e5760405162461bcd60e51b81526004016101d5906107b1565b60048054600354604051632770a7eb60e21b81526001600160a01b0392831693639dc29fac9361057293169186910161073a565b600060405180830381600087803b15801561058c57600080fd5b505af11580156105a0573d6000803e3d6000fd5b5050505081600260008282546103c99190610998565b60006105c46012600a61089c565b6105ce9083610979565b92915050565b8280546105e0906109af565b90600052602060002090601f0160209004810192826106025760008555610648565b82601f1061061b57805160ff1916838001178555610648565b82800160010185558215610648579182015b8281111561064857825182559160200191906001019061062d565b50610654929150610658565b5090565b5b808211156106545760008155600101610659565b6000602080838503121561067f578182fd5b823567ffffffffffffffff80821115610696578384fd5b818501915085601f8301126106a9578384fd5b8135818111156106bb576106bb610a00565b604051601f8201601f19168101850183811182821017156106de576106de610a00565b60405281815283820185018810156106f4578586fd5b818585018683013790810190930193909352509392505050565b60006020828403121561071f578081fd5b5035919050565b6001600160a01b0391909116815260200190565b6001600160a01b03929092168252602082015260400190565b901515815260200190565b6000602080835283518082850152825b8181101561078a5785810183015185820160400152820161076e565b8181111561079b5783604083870101525b50601f01601f1916929092016040019392505050565b60208082526015908201527424b739bab33334b1b4b2b73a103130b630b731b29760591b604082015260600190565b60208082526027908201527f4f6e6c7920746865206f776e65722063616e20706572666f726d20746869732060408201526630b1ba34b7b71760c91b606082015260800190565b90815260200190565b60ff91909116815260200190565b60008219821115610851576108516109ea565b500190565b80825b60018086116108685750610893565b81870482111561087a5761087a6109ea565b8086161561088757918102915b9490941c938002610859565b94509492505050565b60006108ae60001960ff8516846108b5565b9392505050565b6000826108c4575060016108ae565b816108d1575060006108ae565b81600181146108e757600281146108f15761091e565b60019150506108ae565b60ff841115610902576109026109ea565b6001841b915084821115610918576109186109ea565b506108ae565b5060208310610133831016604e8410600b8410161715610951575081810a8381111561094c5761094c6109ea565b6108ae565b61095e8484846001610856565b808604821115610970576109706109ea565b02949350505050565b6000816000190483118215151615610993576109936109ea565b500290565b6000828210156109aa576109aa6109ea565b500390565b6002810460018216806109c357607f821691505b602082108114156109e457634e487b7160e01b600052602260045260246000fd5b50919050565b634e487b7160e01b600052601160045260246000fd5b634e487b7160e01b600052604160045260246000fdfea26469706673582212207ec5af99b3ccd099db3abbfa37e7dd62124a117b0f47600049018e9b01966ad564736f6c63430008000033",
  "immutableReferences": {},
  "source": "// SPDX-License-Identifier: MIT\r\npragma solidity ^0.8.0;\r\n\r\nimport \"./IAccount.sol\";\r\nimport \"../tokens/AccountingToken.sol\"; \r\n\r\n/**\r\n * @title ResultAccount\r\n * @dev Contrato para la cuenta de resultados de una empresa.\r\n */\r\ncontract ResultAccount is IAccount {\r\n    string public accountName;\r\n    address public owner;\r\n    bool public isExpense;\r\n    uint256 public balance;\r\n    address public tokenAddress;\r\n    AccountingToken private token;\r\n    uint8 public constant decimals = 18;\r\n\r\n\r\n    /**\r\n     * @dev Crea una nueva instancia de ResultAccount.\r\n     * @param _accountName Nombre de la cuenta.\r\n     * @param _isExpense Indica si la cuenta es de gasto o ingreso.\r\n     */\r\n    constructor(string memory _accountName, bool _isExpense, address _tokenAddress, address instanceAccountingToken) {\r\n        owner = msg.sender;\r\n        accountName = _accountName;\r\n        isExpense = _isExpense;\r\n        tokenAddress = _tokenAddress;\r\n        token = AccountingToken(instanceAccountingToken);\r\n    }\r\n\r\n    /**\r\n     * @dev Obtiene el nombre de la cuenta.\r\n     * @return El nombre de la cuenta.\r\n     */\r\n    function getAccountName() external view override returns (string memory) {\r\n        return accountName;\r\n    }\r\n\r\n    /**\r\n     * @dev Establece el nombre de la cuenta.\r\n     * @param _accountName Nuevo nombre de la cuenta.\r\n     */\r\n    function setAccountName(string memory _accountName) public override {\r\n        require(msg.sender == owner, \"Only the owner can perform this action.\");\r\n        accountName = _accountName;\r\n    }\r\n\r\n    /**\r\n     * @dev Realiza un dbito en la cuenta.\r\n     * @param _amount Monto a debitar en la cuenta.\r\n     */\r\n    function debit(uint256 _amount) public override {\r\n        uint256 tokenAmount = toTokenUnits(_amount);\r\n        if (isExpense) {\r\n            token.mint(tokenAddress, tokenAmount);\r\n            balance += _amount;\r\n        } else {\r\n            require(balance >= _amount, \"Insufficient balance.\");\r\n            token.burn(tokenAddress, tokenAmount);\r\n            balance -= _amount;\r\n        }\r\n    }\r\n\r\n    /**\r\n     * @dev Realiza un crdito en la cuenta.\r\n     * @param _amount Monto a acreditar en la cuenta.\r\n     */\r\n    function credit(uint256 _amount) public override {\r\n        uint256 tokenAmount = toTokenUnits(_amount);\r\n        if (isExpense) {\r\n            require(balance >= _amount, \"Insufficient balance.\");\r\n            token.burn(tokenAddress, tokenAmount);\r\n            balance -= _amount;\r\n        } else {\r\n            token.mint(tokenAddress, tokenAmount);\r\n            balance += _amount;\r\n        }\r\n    }\r\n\r\n    /**\r\n     * @dev Obtiene el balance actual de la cuenta.\r\n     * @return El balance de la cuenta.\r\n     */\r\n    function getBalance() external view override returns (uint256) {\r\n        return balance;\r\n    }\r\n\r\n    /**\r\n     * @dev Devuelve el token address.\r\n     * @return addess Nombre de la cuenta.\r\n     */\r\n    function getTokenAddress() external view override returns (address) {\r\n        return tokenAddress;\r\n    }\r\n\r\n    function toTokenUnits(uint256 amount) internal pure returns (uint256) {\r\n    return amount * (10 ** decimals);\r\n    }\r\n}\r\n",
  "sourcePath": "D:\\Workspaces\\vdg-api-accounting\\contracts\\accountingSystem\\ResultAccount.sol",
  "compiler": {
    "name": "solc",
    "version": "0.8.0+commit.c7dfd78e.Emscripten.clang"
  },
  "schemaVersion": "3.4.13",
  "updatedAt": "2023-05-30T01:57:32.774Z",
  "devdoc": {
    "details": "Contrato para la cuenta de resultados de una empresa.",
    "kind": "dev",
    "methods": {
      "constructor": {
        "details": "Crea una nueva instancia de ResultAccount.",
        "params": {
          "_accountName": "Nombre de la cuenta.",
          "_isExpense": "Indica si la cuenta es de gasto o ingreso."
        }
      },
      "credit(uint256)": {
        "details": "Realiza un crdito en la cuenta.",
        "params": {
          "_amount": "Monto a acreditar en la cuenta."
        }
      },
      "debit(uint256)": {
        "details": "Realiza un dbito en la cuenta.",
        "params": {
          "_amount": "Monto a debitar en la cuenta."
        }
      },
      "getAccountName()": {
        "details": "Obtiene el nombre de la cuenta.",
        "returns": {
          "_0": "El nombre de la cuenta."
        }
      },
      "getBalance()": {
        "details": "Obtiene el balance actual de la cuenta.",
        "returns": {
          "_0": "El balance de la cuenta."
        }
      },
      "getTokenAddress()": {
        "details": "Devuelve el token address.",
        "returns": {
          "_0": "addess Nombre de la cuenta."
        }
      },
      "setAccountName(string)": {
        "details": "Establece el nombre de la cuenta.",
        "params": {
          "_accountName": "Nuevo nombre de la cuenta."
        }
      }
    },
    "title": "ResultAccount",
    "version": 1
  },
  "userdoc": {
    "kind": "user",
    "methods": {},
    "version": 1
  }
}