{
  "contractName": "ResultAccount",
  "abi": [
    {
      "inputs": [
        {
          "internalType": "string",
          "name": "_accountName",
          "type": "string"
        },
        {
          "internalType": "bool",
          "name": "_isExpense",
          "type": "bool"
        },
        {
          "internalType": "address",
          "name": "_tokenAddress",
          "type": "address"
        },
        {
          "internalType": "address",
          "name": "instanceAccountingToken",
          "type": "address"
        }
      ],
      "stateMutability": "nonpayable",
      "type": "constructor"
    },
    {
      "inputs": [],
      "name": "accountName",
      "outputs": [
        {
          "internalType": "string",
          "name": "",
          "type": "string"
        }
      ],
      "stateMutability": "view",
      "type": "function"
    },
    {
      "inputs": [],
      "name": "isExpense",
      "outputs": [
        {
          "internalType": "bool",
          "name": "",
          "type": "bool"
        }
      ],
      "stateMutability": "view",
      "type": "function"
    },
    {
      "inputs": [],
      "name": "owner",
      "outputs": [
        {
          "internalType": "address",
          "name": "",
          "type": "address"
        }
      ],
      "stateMutability": "view",
      "type": "function"
    },
    {
      "inputs": [],
      "name": "tokenAddress",
      "outputs": [
        {
          "internalType": "address",
          "name": "",
          "type": "address"
        }
      ],
      "stateMutability": "view",
      "type": "function"
    },
    {
      "inputs": [],
      "name": "getAccountName",
      "outputs": [
        {
          "internalType": "string",
          "name": "",
          "type": "string"
        }
      ],
      "stateMutability": "view",
      "type": "function"
    },
    {
      "inputs": [
        {
          "internalType": "string",
          "name": "_accountName",
          "type": "string"
        }
      ],
      "name": "setAccountName",
      "outputs": [],
      "stateMutability": "nonpayable",
      "type": "function"
    },
    {
      "inputs": [
        {
          "internalType": "uint256",
          "name": "_amount",
          "type": "uint256"
        }
      ],
      "name": "debit",
      "outputs": [],
      "stateMutability": "nonpayable",
      "type": "function"
    },
    {
      "inputs": [
        {
          "internalType": "uint256",
          "name": "_amount",
          "type": "uint256"
        }
      ],
      "name": "credit",
      "outputs": [],
      "stateMutability": "nonpayable",
      "type": "function"
    },
    {
      "inputs": [],
      "name": "getBalance",
      "outputs": [
        {
          "internalType": "uint256",
          "name": "",
          "type": "uint256"
        }
      ],
      "stateMutability": "view",
      "type": "function"
    },
    {
      "inputs": [],
      "name": "getTokenAddress",
      "outputs": [
        {
          "internalType": "address",
          "name": "",
          "type": "address"
        }
      ],
      "stateMutability": "view",
      "type": "function"
    }
  ],
  "bytecode": "0x60806040523480156200001157600080fd5b5060405162000c2138038062000c21833981016040819052620000349162000180565b600180546001600160a01b0319163317905583516200005b906000906020870190620000ac565b5060018054931515600160a01b0260ff60a01b1990941693909317909255600280546001600160a01b039283166001600160a01b0319918216179091556003805492909316911617905550620002dc565b828054620000ba9062000289565b90600052602060002090601f016020900481019282620000de576000855562000129565b82601f10620000f957805160ff191683800117855562000129565b8280016001018555821562000129579182015b82811115620001295782518255916020019190600101906200010c565b50620001379291506200013b565b5090565b5b808211156200013757600081556001016200013c565b80516001600160a01b03811681146200016a57600080fd5b919050565b805180151581146200016a57600080fd5b6000806000806080858703121562000196578384fd5b84516001600160401b0380821115620001ad578586fd5b818701915087601f830112620001c1578586fd5b815181811115620001d657620001d6620002c6565b6040516020601f8301601f1916820181018481118382101715620001fe57620001fe620002c6565b60405282825284830181018b101562000215578889fd5b8893505b8284101562000238578484018101518285018201529283019262000219565b828411156200024957888184840101525b81985062000259818b016200016f565b975050505050506200026e6040860162000152565b91506200027e6060860162000152565b905092959194509250565b6002810460018216806200029e57607f821691505b60208210811415620002c057634e487b7160e01b600052602260045260246000fd5b50919050565b634e487b7160e01b600052604160045260246000fd5b61093580620002ec6000396000f3fe608060405234801561001057600080fd5b506004361061009e5760003560e01c806378da744b1161006657806378da744b146101155780638da5cb5b146101285780639d76ea5814610130578063c5e5798514610138578063e609d9fc146101405761009e565b80630cd9d695146100a357806310fe9ae8146100c157806312065fe0146100d65780632e95adad146100eb578063638dc2b514610100575b600080fd5b6100ab610153565b6040516100b891906107d1565b60405180910390f35b6100c9610163565b6040516100b891906107a4565b6100de610172565b6040516100b891906108a5565b6100fe6100f93660046106d3565b6101ff565b005b610108610249565b6040516100b891906107dc565b6100fe610123366004610774565b6102db565b6100c961046b565b6100c961047a565b610108610489565b6100fe61014e366004610774565b610517565b600154600160a01b900460ff1681565b6002546001600160a01b031690565b6003546002546040516370a0823160e01b81526000926001600160a01b03908116926370a08231926101aa92909116906004016107a4565b60206040518083038186803b1580156101c257600080fd5b505afa1580156101d6573d6000803e3d6000fd5b505050506040513d601f19601f820116820180604052508101906101fa919061078c565b905090565b6001546001600160a01b031633146102325760405162461bcd60e51b81526004016102299061085e565b60405180910390fd5b805161024590600090602084019061063a565b5050565b606060008054610258906108ae565b80601f0160208091040260200160405190810160405280929190818152602001828054610284906108ae565b80156102d15780601f106102a6576101008083540402835291602001916102d1565b820191906000526020600020905b8154815290600101906020018083116102b457829003601f168201915b5050505050905090565b600154600160a01b900460ff16156103ff576003546002546040516370a0823160e01b815283926001600160a01b03908116926370a082319261032492909116906004016107a4565b60206040518083038186803b15801561033c57600080fd5b505afa158015610350573d6000803e3d6000fd5b505050506040513d601f19601f82011682018060405250810190610374919061078c565b10156103925760405162461bcd60e51b81526004016102299061082f565b600354600254604051632770a7eb60e21b81526001600160a01b0392831692639dc29fac926103c89291169085906004016107b8565b600060405180830381600087803b1580156103e257600080fd5b505af11580156103f6573d6000803e3d6000fd5b50505050610468565b6003546002546040516340c10f1960e01b81526001600160a01b03928316926340c10f19926104359291169085906004016107b8565b600060405180830381600087803b15801561044f57600080fd5b505af1158015610463573d6000803e3d6000fd5b505050505b50565b6001546001600160a01b031681565b6002546001600160a01b031681565b60008054610496906108ae565b80601f01602080910402602001604051908101604052809291908181526020018280546104c2906108ae565b801561050f5780601f106104e45761010080835404028352916020019161050f565b820191906000526020600020905b8154815290600101906020018083116104f257829003601f168201915b505050505081565b600154600160a01b900460ff161561055f576003546002546040516340c10f1960e01b81526001600160a01b03928316926340c10f19926103c89291169085906004016107b8565b6003546002546040516370a0823160e01b815283926001600160a01b03908116926370a082319261059692909116906004016107a4565b60206040518083038186803b1580156105ae57600080fd5b505afa1580156105c2573d6000803e3d6000fd5b505050506040513d601f19601f820116820180604052508101906105e6919061078c565b10156106045760405162461bcd60e51b81526004016102299061082f565b600354600254604051632770a7eb60e21b81526001600160a01b0392831692639dc29fac926104359291169085906004016107b8565b828054610646906108ae565b90600052602060002090601f01602090048101928261066857600085556106ae565b82601f1061068157805160ff19168380011785556106ae565b828001600101855582156106ae579182015b828111156106ae578251825591602001919060010190610693565b506106ba9291506106be565b5090565b5b808211156106ba57600081556001016106bf565b600060208083850312156106e5578182fd5b823567ffffffffffffffff808211156106fc578384fd5b818501915085601f83011261070f578384fd5b813581811115610721576107216108e9565b604051601f8201601f1916810185018381118282101715610744576107446108e9565b604052818152838201850188101561075a578586fd5b818585018683013790810190930193909352509392505050565b600060208284031215610785578081fd5b5035919050565b60006020828403121561079d578081fd5b5051919050565b6001600160a01b0391909116815260200190565b6001600160a01b03929092168252602082015260400190565b901515815260200190565b6000602080835283518082850152825b81811015610808578581018301518582016040015282016107ec565b818111156108195783604083870101525b50601f01601f1916929092016040019392505050565b60208082526015908201527424b739bab33334b1b4b2b73a103130b630b731b29760591b604082015260600190565b60208082526027908201527f4f6e6c7920746865206f776e65722063616e20706572666f726d20746869732060408201526630b1ba34b7b71760c91b606082015260800190565b90815260200190565b6002810460018216806108c257607f821691505b602082108114156108e357634e487b7160e01b600052602260045260246000fd5b50919050565b634e487b7160e01b600052604160045260246000fdfea26469706673582212207470cf36afde66d8aaf7f3bb5f089f9a110e0ec5f9216fe7f099feee0a67969864736f6c63430008000033",
  "immutableReferences": {},
  "source": "// SPDX-License-Identifier: MIT\r\npragma solidity ^0.8.0;\r\n\r\nimport \"./IAccount.sol\";\r\nimport \"../tokens/AccountingToken.sol\"; \r\n\r\n/**\r\n * @title ResultAccount\r\n * @dev Contrato para la cuenta de resultados de una empresa.\r\n */\r\ncontract ResultAccount is IAccount {\r\n    string public accountName;\r\n    address public owner;\r\n    bool public isExpense;\r\n    address public tokenAddress;\r\n    AccountingToken private token;\r\n\r\n\r\n    /**\r\n     * @dev Crea una nueva instancia de ResultAccount.\r\n     * @param _accountName Nombre de la cuenta.\r\n     * @param _isExpense Indica si la cuenta es de gasto o ingreso.\r\n     */\r\n    constructor(string memory _accountName, bool _isExpense, address _tokenAddress, address instanceAccountingToken) {\r\n        owner = msg.sender;\r\n        accountName = _accountName;\r\n        isExpense = _isExpense;\r\n        tokenAddress = _tokenAddress;\r\n        token = AccountingToken(instanceAccountingToken);\r\n    }\r\n\r\n    /**\r\n     * @dev Obtiene el nombre de la cuenta.\r\n     * @return El nombre de la cuenta.\r\n     */\r\n    function getAccountName() external view override returns (string memory) {\r\n        return accountName;\r\n    }\r\n\r\n    /**\r\n     * @dev Establece el nombre de la cuenta.\r\n     * @param _accountName Nuevo nombre de la cuenta.\r\n     */\r\n    function setAccountName(string memory _accountName) public override {\r\n        require(msg.sender == owner, \"Only the owner can perform this action.\");\r\n        accountName = _accountName;\r\n    }\r\n\r\n    /**\r\n     * @dev Realiza un dbito en la cuenta.\r\n     * @param _amount Monto a debitar en la cuenta.\r\n     */\r\n    function debit(uint256 _amount) public override {\r\n        if (isExpense) {\r\n            token.mint(tokenAddress, _amount);\r\n        } else {\r\n            require(token.balanceOf(tokenAddress) >= _amount, \"Insufficient balance.\");\r\n            token.burn(tokenAddress, _amount);\r\n        }\r\n    }\r\n\r\n    /**\r\n     * @dev Realiza un crdito en la cuenta.\r\n     * @param _amount Monto a acreditar en la cuenta.\r\n     */\r\n    function credit(uint256 _amount) public override {\r\n        if (isExpense) {\r\n            require(token.balanceOf(tokenAddress) >= _amount, \"Insufficient balance.\");\r\n            token.burn(tokenAddress, _amount);\r\n        } else {\r\n            token.mint(tokenAddress, _amount);\r\n        }\r\n    }\r\n\r\n    /**\r\n     * @dev Obtiene el balance actual de la cuenta.\r\n     * @return El balance de la cuenta.\r\n     */\r\n    function getBalance() external view override returns (uint256) {\r\n        return token.balanceOf(tokenAddress);\r\n    }\r\n\r\n    /**\r\n     * @dev Devuelve el token address.\r\n     * @return addess Nombre de la cuenta.\r\n     */\r\n    function getTokenAddress() external view override returns (address) {\r\n        return tokenAddress;\r\n    }\r\n}\r\n",
  "sourcePath": "D:\\Workspaces\\vdg-api-accounting\\contracts\\accountingSystem\\ResultAccount.sol",
  "compiler": {
    "name": "solc",
    "version": "0.8.0+commit.c7dfd78e.Emscripten.clang"
  },
  "schemaVersion": "3.4.13",
  "updatedAt": "2023-05-31T18:47:41.664Z",
  "devdoc": {
    "details": "Contrato para la cuenta de resultados de una empresa.",
    "kind": "dev",
    "methods": {
      "constructor": {
        "details": "Crea una nueva instancia de ResultAccount.",
        "params": {
          "_accountName": "Nombre de la cuenta.",
          "_isExpense": "Indica si la cuenta es de gasto o ingreso."
        }
      },
      "credit(uint256)": {
        "details": "Realiza un crdito en la cuenta.",
        "params": {
          "_amount": "Monto a acreditar en la cuenta."
        }
      },
      "debit(uint256)": {
        "details": "Realiza un dbito en la cuenta.",
        "params": {
          "_amount": "Monto a debitar en la cuenta."
        }
      },
      "getAccountName()": {
        "details": "Obtiene el nombre de la cuenta.",
        "returns": {
          "_0": "El nombre de la cuenta."
        }
      },
      "getBalance()": {
        "details": "Obtiene el balance actual de la cuenta.",
        "returns": {
          "_0": "El balance de la cuenta."
        }
      },
      "getTokenAddress()": {
        "details": "Devuelve el token address.",
        "returns": {
          "_0": "addess Nombre de la cuenta."
        }
      },
      "setAccountName(string)": {
        "details": "Establece el nombre de la cuenta.",
        "params": {
          "_accountName": "Nuevo nombre de la cuenta."
        }
      }
    },
    "title": "ResultAccount",
    "version": 1
  },
  "userdoc": {
    "kind": "user",
    "methods": {},
    "version": 1
  }
}